{
  "_format": "hh-sol-artifact-1",
  "contractName": "AgriDAO",
  "sourceName": "contracts/AgriDAO.sol",
  "abi": [
    {
      "inputs": [
        {
          "internalType": "address",
          "name": "_policyStore",
          "type": "address"
        },
        {
          "internalType": "address",
          "name": "_agentRegistry",
          "type": "address"
        }
      ],
      "stateMutability": "nonpayable",
      "type": "constructor"
    },
    {
      "anonymous": false,
      "inputs": [
        {
          "indexed": true,
          "internalType": "uint256",
          "name": "id",
          "type": "uint256"
        }
      ],
      "name": "Executed",
      "type": "event"
    },
    {
      "anonymous": false,
      "inputs": [
        {
          "indexed": true,
          "internalType": "uint256",
          "name": "id",
          "type": "uint256"
        },
        {
          "indexed": false,
          "internalType": "enum AgriDAO.ProposalState",
          "name": "newState",
          "type": "uint8"
        }
      ],
      "name": "Finalized",
      "type": "event"
    },
    {
      "anonymous": false,
      "inputs": [
        {
          "indexed": true,
          "internalType": "uint256",
          "name": "id",
          "type": "uint256"
        },
        {
          "indexed": false,
          "internalType": "address",
          "name": "proposer",
          "type": "address"
        },
        {
          "indexed": false,
          "internalType": "string",
          "name": "description",
          "type": "string"
        },
        {
          "indexed": false,
          "internalType": "bytes32",
          "name": "policyKey",
          "type": "bytes32"
        },
        {
          "indexed": false,
          "internalType": "uint256",
          "name": "policyValue",
          "type": "uint256"
        }
      ],
      "name": "Proposed",
      "type": "event"
    },
    {
      "anonymous": false,
      "inputs": [
        {
          "indexed": true,
          "internalType": "uint256",
          "name": "id",
          "type": "uint256"
        }
      ],
      "name": "Queued",
      "type": "event"
    },
    {
      "anonymous": false,
      "inputs": [
        {
          "indexed": true,
          "internalType": "uint256",
          "name": "id",
          "type": "uint256"
        },
        {
          "indexed": false,
          "internalType": "address",
          "name": "voter",
          "type": "address"
        },
        {
          "indexed": false,
          "internalType": "bool",
          "name": "support",
          "type": "bool"
        }
      ],
      "name": "Voted",
      "type": "event"
    },
    {
      "inputs": [],
      "name": "EXECUTION_DELAY",
      "outputs": [
        {
          "internalType": "uint256",
          "name": "",
          "type": "uint256"
        }
      ],
      "stateMutability": "view",
      "type": "function"
    },
    {
      "inputs": [],
      "name": "QUORUM_THRESHOLD",
      "outputs": [
        {
          "internalType": "uint256",
          "name": "",
          "type": "uint256"
        }
      ],
      "stateMutability": "view",
      "type": "function"
    },
    {
      "inputs": [],
      "name": "VOTING_PERIOD",
      "outputs": [
        {
          "internalType": "uint256",
          "name": "",
          "type": "uint256"
        }
      ],
      "stateMutability": "view",
      "type": "function"
    },
    {
      "inputs": [],
      "name": "agentRegistry",
      "outputs": [
        {
          "internalType": "address",
          "name": "",
          "type": "address"
        }
      ],
      "stateMutability": "view",
      "type": "function"
    },
    {
      "inputs": [
        {
          "internalType": "uint256",
          "name": "id",
          "type": "uint256"
        }
      ],
      "name": "execute",
      "outputs": [],
      "stateMutability": "nonpayable",
      "type": "function"
    },
    {
      "inputs": [
        {
          "internalType": "uint256",
          "name": "id",
          "type": "uint256"
        }
      ],
      "name": "finalize",
      "outputs": [],
      "stateMutability": "nonpayable",
      "type": "function"
    },
    {
      "inputs": [
        {
          "internalType": "uint256",
          "name": "id",
          "type": "uint256"
        },
        {
          "internalType": "address",
          "name": "voter",
          "type": "address"
        }
      ],
      "name": "getHasVoted",
      "outputs": [
        {
          "internalType": "bool",
          "name": "",
          "type": "bool"
        }
      ],
      "stateMutability": "view",
      "type": "function"
    },
    {
      "inputs": [
        {
          "internalType": "uint256",
          "name": "id",
          "type": "uint256"
        }
      ],
      "name": "getProposal",
      "outputs": [
        {
          "components": [
            {
              "internalType": "uint256",
              "name": "id",
              "type": "uint256"
            },
            {
              "internalType": "address",
              "name": "proposer",
              "type": "address"
            },
            {
              "internalType": "string",
              "name": "description",
              "type": "string"
            },
            {
              "internalType": "bytes32",
              "name": "policyKey",
              "type": "bytes32"
            },
            {
              "internalType": "uint256",
              "name": "policyValue",
              "type": "uint256"
            },
            {
              "internalType": "bool",
              "name": "executed",
              "type": "bool"
            },
            {
              "internalType": "uint256",
              "name": "yesVotes",
              "type": "uint256"
            },
            {
              "internalType": "uint256",
              "name": "noVotes",
              "type": "uint256"
            },
            {
              "internalType": "uint256",
              "name": "createdAt",
              "type": "uint256"
            },
            {
              "internalType": "uint256",
              "name": "totalVoters",
              "type": "uint256"
            },
            {
              "internalType": "enum AgriDAO.ProposalState",
              "name": "state",
              "type": "uint8"
            },
            {
              "internalType": "uint256",
              "name": "queuedAt",
              "type": "uint256"
            }
          ],
          "internalType": "struct AgriDAO.Proposal",
          "name": "",
          "type": "tuple"
        }
      ],
      "stateMutability": "view",
      "type": "function"
    },
    {
      "inputs": [
        {
          "internalType": "uint256",
          "name": "id",
          "type": "uint256"
        }
      ],
      "name": "getState",
      "outputs": [
        {
          "internalType": "enum AgriDAO.ProposalState",
          "name": "",
          "type": "uint8"
        }
      ],
      "stateMutability": "view",
      "type": "function"
    },
    {
      "inputs": [
        {
          "internalType": "uint256",
          "name": "",
          "type": "uint256"
        },
        {
          "internalType": "address",
          "name": "",
          "type": "address"
        }
      ],
      "name": "hasVoted",
      "outputs": [
        {
          "internalType": "bool",
          "name": "",
          "type": "bool"
        }
      ],
      "stateMutability": "view",
      "type": "function"
    },
    {
      "inputs": [],
      "name": "nextId",
      "outputs": [
        {
          "internalType": "uint256",
          "name": "",
          "type": "uint256"
        }
      ],
      "stateMutability": "view",
      "type": "function"
    },
    {
      "inputs": [],
      "name": "owner",
      "outputs": [
        {
          "internalType": "address",
          "name": "",
          "type": "address"
        }
      ],
      "stateMutability": "view",
      "type": "function"
    },
    {
      "inputs": [],
      "name": "policyStore",
      "outputs": [
        {
          "internalType": "address",
          "name": "",
          "type": "address"
        }
      ],
      "stateMutability": "view",
      "type": "function"
    },
    {
      "inputs": [
        {
          "internalType": "uint256",
          "name": "",
          "type": "uint256"
        }
      ],
      "name": "proposals",
      "outputs": [
        {
          "internalType": "uint256",
          "name": "id",
          "type": "uint256"
        },
        {
          "internalType": "address",
          "name": "proposer",
          "type": "address"
        },
        {
          "internalType": "string",
          "name": "description",
          "type": "string"
        },
        {
          "internalType": "bytes32",
          "name": "policyKey",
          "type": "bytes32"
        },
        {
          "internalType": "uint256",
          "name": "policyValue",
          "type": "uint256"
        },
        {
          "internalType": "bool",
          "name": "executed",
          "type": "bool"
        },
        {
          "internalType": "uint256",
          "name": "yesVotes",
          "type": "uint256"
        },
        {
          "internalType": "uint256",
          "name": "noVotes",
          "type": "uint256"
        },
        {
          "internalType": "uint256",
          "name": "createdAt",
          "type": "uint256"
        },
        {
          "internalType": "uint256",
          "name": "totalVoters",
          "type": "uint256"
        },
        {
          "internalType": "enum AgriDAO.ProposalState",
          "name": "state",
          "type": "uint8"
        },
        {
          "internalType": "uint256",
          "name": "queuedAt",
          "type": "uint256"
        }
      ],
      "stateMutability": "view",
      "type": "function"
    },
    {
      "inputs": [
        {
          "internalType": "string",
          "name": "description",
          "type": "string"
        },
        {
          "internalType": "bytes32",
          "name": "policyKey",
          "type": "bytes32"
        },
        {
          "internalType": "uint256",
          "name": "policyValue",
          "type": "uint256"
        }
      ],
      "name": "propose",
      "outputs": [
        {
          "internalType": "uint256",
          "name": "",
          "type": "uint256"
        }
      ],
      "stateMutability": "nonpayable",
      "type": "function"
    },
    {
      "inputs": [
        {
          "internalType": "uint256",
          "name": "id",
          "type": "uint256"
        }
      ],
      "name": "queue",
      "outputs": [],
      "stateMutability": "nonpayable",
      "type": "function"
    },
    {
      "inputs": [
        {
          "internalType": "uint256",
          "name": "_delay",
          "type": "uint256"
        }
      ],
      "name": "setExecutionDelay",
      "outputs": [],
      "stateMutability": "nonpayable",
      "type": "function"
    },
    {
      "inputs": [
        {
          "internalType": "uint256",
          "name": "_quorum",
          "type": "uint256"
        }
      ],
      "name": "setQuorumThreshold",
      "outputs": [],
      "stateMutability": "nonpayable",
      "type": "function"
    },
    {
      "inputs": [
        {
          "internalType": "uint256",
          "name": "_period",
          "type": "uint256"
        }
      ],
      "name": "setVotingPeriod",
      "outputs": [],
      "stateMutability": "nonpayable",
      "type": "function"
    },
    {
      "inputs": [
        {
          "internalType": "uint256",
          "name": "id",
          "type": "uint256"
        },
        {
          "internalType": "bool",
          "name": "support",
          "type": "bool"
        }
      ],
      "name": "vote",
      "outputs": [],
      "stateMutability": "nonpayable",
      "type": "function"
    }
  ],
  "bytecode": "0x60806040526003805562015180600455610e1060055534801561002157600080fd5b5060405161287c38038061287c8339818101604052810190610043919061016f565b336000806101000a81548173ffffffffffffffffffffffffffffffffffffffff021916908373ffffffffffffffffffffffffffffffffffffffff16021790555081600160006101000a81548173ffffffffffffffffffffffffffffffffffffffff021916908373ffffffffffffffffffffffffffffffffffffffff16021790555080600260006101000a81548173ffffffffffffffffffffffffffffffffffffffff021916908373ffffffffffffffffffffffffffffffffffffffff16021790555050506101af565b600080fd5b600073ffffffffffffffffffffffffffffffffffffffff82169050919050565b600061013c82610111565b9050919050565b61014c81610131565b811461015757600080fd5b50565b60008151905061016981610143565b92915050565b600080604083850312156101865761018561010c565b5b60006101948582860161015a565b92505060206101a58582860161015a565b9150509250929050565b6126be806101be6000396000f3fe608060405234801561001057600080fd5b506004361061012c5760003560e01c80638da5cb5b116100ad578063c9d27afe11610071578063c9d27afe14610366578063ddf0b00914610382578063e4917d9f1461039e578063ea0217cf146103ba578063fe0d94c1146103d65761012c565b80638da5cb5b146102ac578063a9ac24ff146102ca578063b1610d7e146102fa578063b932645314610318578063c7f758a8146103365761012c565b806344c9af28116100f457806344c9af28146101f45780634524c7e1146102245780635e510b601461024057806361b8ce8c1461025e5780636a0c57231461027c5761012c565b8063013cf08b1461013157806305261aea1461016c5780630d1cfcae1461018857806337f135d7146101a657806343859632146101c4575b600080fd5b61014b600480360381019061014691906115f0565b6103f2565b6040516101639c9b9a999897969594939291906117a8565b60405180910390f35b610186600480360381019061018191906115f0565b610514565b005b6101906106c5565b60405161019d9190611869565b60405180910390f35b6101ae6106eb565b6040516101bb9190611884565b60405180910390f35b6101de60048036038101906101d991906118cb565b6106f1565b6040516101eb919061190b565b60405180910390f35b61020e600480360381019061020991906115f0565b610720565b60405161021b9190611926565b60405180910390f35b61023e600480360381019061023991906115f0565b61074d565b005b6102486107e5565b6040516102559190611884565b60405180910390f35b6102666107eb565b6040516102739190611884565b60405180910390f35b610296600480360381019061029191906118cb565b6107f1565b6040516102a3919061190b565b60405180910390f35b6102b4610859565b6040516102c19190611869565b60405180910390f35b6102e460048036038101906102df91906119d2565b61087d565b6040516102f19190611884565b60405180910390f35b610302610ba9565b60405161030f9190611884565b60405180910390f35b610320610baf565b60405161032d9190611869565b60405180910390f35b610350600480360381019061034b91906115f0565b610bd5565b60405161035d9190611bdf565b60405180910390f35b610380600480360381019061037b9190611c2d565b610d91565b005b61039c600480360381019061039791906115f0565b6110fd565b005b6103b860048036038101906103b391906115f0565b6111f3565b005b6103d460048036038101906103cf91906115f0565b61128b565b005b6103f060048036038101906103eb91906115f0565b611323565b005b60076020528060005260406000206000915090508060000154908060010160009054906101000a900473ffffffffffffffffffffffffffffffffffffffff169080600201805461044190611c9c565b80601f016020809104026020016040519081016040528092919081815260200182805461046d90611c9c565b80156104ba5780601f1061048f576101008083540402835291602001916104ba565b820191906000526020600020905b81548152906001019060200180831161049d57829003601f168201915b5050505050908060030154908060040154908060050160009054906101000a900460ff169080600601549080600701549080600801549080600901549080600a0160009054906101000a900460ff169080600b015490508c565b60006007600083815260200190815260200160002090506001600681111561053f5761053e611731565b5b81600a0160009054906101000a900460ff16600681111561056357610562611731565b5b146105a3576040517f08c379a000000000000000000000000000000000000000000000000000000000815260040161059a90611d19565b60405180910390fd5b60045481600801546105b59190611d68565b42116105f6576040517f08c379a00000000000000000000000000000000000000000000000000000000081526004016105ed90611de8565b60405180910390fd5b600354816009015410158015610613575080600701548160060154115b1561064a57600281600a0160006101000a81548160ff021916908360068111156106405761063f611731565b5b0217905550610678565b600381600a0160006101000a81548160ff0219169083600681111561067257610671611731565b5b02179055505b817f14b32513bc60303cd54741ac55d1169cbcdcf5a83e16d63a54a082bf3724999f82600a0160009054906101000a900460ff166040516106b99190611926565b60405180910390a25050565b600260009054906101000a900473ffffffffffffffffffffffffffffffffffffffff1681565b60055481565b60086020528160005260406000206020528060005260406000206000915091509054906101000a900460ff1681565b600060076000838152602001908152602001600020600a0160009054906101000a900460ff169050919050565b60008054906101000a900473ffffffffffffffffffffffffffffffffffffffff1673ffffffffffffffffffffffffffffffffffffffff163373ffffffffffffffffffffffffffffffffffffffff16146107db576040517f08c379a00000000000000000000000000000000000000000000000000000000081526004016107d290611e54565b60405180910390fd5b8060038190555050565b60035481565b60065481565b60006008600084815260200190815260200160002060008373ffffffffffffffffffffffffffffffffffffffff1673ffffffffffffffffffffffffffffffffffffffff16815260200190815260200160002060009054906101000a900460ff16905092915050565b60008054906101000a900473ffffffffffffffffffffffffffffffffffffffff1681565b600080600260009054906101000a900473ffffffffffffffffffffffffffffffffffffffff1673ffffffffffffffffffffffffffffffffffffffff1663fd66091e336040518263ffffffff1660e01b81526004016108db9190611869565b600060405180830381865afa1580156108f8573d6000803e3d6000fd5b505050506040513d6000823e3d601f19601f820116820180604052508101906109219190611fbf565b935050505080610966576040517f08c379a000000000000000000000000000000000000000000000000000000000815260040161095d906120aa565b60405180910390fd5b6000600660008154610977906120ca565b91905081905590506040518061018001604052808281526020013373ffffffffffffffffffffffffffffffffffffffff16815260200188888080601f016020809104026020016040519081016040528093929190818152602001838380828437600081840152601f19601f82011690508083019250505050505050815260200186815260200185815260200160001515815260200160008152602001600081526020014281526020016000815260200160016006811115610a3b57610a3a611731565b5b81526020016000815250600760008381526020019081526020016000206000820151816000015560208201518160010160006101000a81548173ffffffffffffffffffffffffffffffffffffffff021916908373ffffffffffffffffffffffffffffffffffffffff1602179055506040820151816002019081610abe91906122be565b50606082015181600301556080820151816004015560a08201518160050160006101000a81548160ff02191690831515021790555060c0820151816006015560e082015181600701556101008201518160080155610120820151816009015561014082015181600a0160006101000a81548160ff02191690836006811115610b4957610b48611731565b5b021790555061016082015181600b0155905050807f7b040ba569d29213c52880be15c6ff675c36da3d051dd388b22e8764e55637bc3389898989604051610b949594939291906123cc565b60405180910390a28092505050949350505050565b60045481565b600160009054906101000a900473ffffffffffffffffffffffffffffffffffffffff1681565b610bdd611518565b6007600083815260200190815260200160002060405180610180016040529081600082015481526020016001820160009054906101000a900473ffffffffffffffffffffffffffffffffffffffff1673ffffffffffffffffffffffffffffffffffffffff1673ffffffffffffffffffffffffffffffffffffffff168152602001600282018054610c6c90611c9c565b80601f0160208091040260200160405190810160405280929190818152602001828054610c9890611c9c565b8015610ce55780601f10610cba57610100808354040283529160200191610ce5565b820191906000526020600020905b815481529060010190602001808311610cc857829003601f168201915b5050505050815260200160038201548152602001600482015481526020016005820160009054906101000a900460ff1615151515815260200160068201548152602001600782015481526020016008820154815260200160098201548152602001600a820160009054906101000a900460ff166006811115610d6a57610d69611731565b5b6006811115610d7c57610d7b611731565b5b8152602001600b820154815250509050919050565b6000600260009054906101000a900473ffffffffffffffffffffffffffffffffffffffff1673ffffffffffffffffffffffffffffffffffffffff1663fd66091e336040518263ffffffff1660e01b8152600401610dee9190611869565b600060405180830381865afa158015610e0b573d6000803e3d6000fd5b505050506040513d6000823e3d601f19601f82011682018060405250810190610e349190611fbf565b935050505080610e79576040517f08c379a0000000000000000000000000000000000000000000000000000000008152600401610e70906120aa565b60405180910390fd5b600060076000858152602001908152602001600020905060016006811115610ea457610ea3611731565b5b81600a0160009054906101000a900460ff166006811115610ec857610ec7611731565b5b14610f08576040517f08c379a0000000000000000000000000000000000000000000000000000000008152600401610eff90611d19565b60405180910390fd5b6004548160080154610f1a9190611d68565b421115610f5c576040517f08c379a0000000000000000000000000000000000000000000000000000000008152600401610f5390612466565b60405180910390fd5b6008600085815260200190815260200160002060003373ffffffffffffffffffffffffffffffffffffffff1673ffffffffffffffffffffffffffffffffffffffff16815260200190815260200160002060009054906101000a900460ff1615610ffa576040517f08c379a0000000000000000000000000000000000000000000000000000000008152600401610ff1906124d2565b60405180910390fd5b60016008600086815260200190815260200160002060003373ffffffffffffffffffffffffffffffffffffffff1673ffffffffffffffffffffffffffffffffffffffff16815260200190815260200160002060006101000a81548160ff021916908315150217905550806009016000815480929190611078906120ca565b919050555082156110a257806006016000815480929190611098906120ca565b91905055506110bd565b8060070160008154809291906110b7906120ca565b91905055505b837ff2913dbe661ee2acc4a046d8fbcdc792373bda34c41c6086484b5345e5785e5f33856040516110ef9291906124f2565b60405180910390a250505050565b60006007600083815260200190815260200160002090506002600681111561112857611127611731565b5b81600a0160009054906101000a900460ff16600681111561114c5761114b611731565b5b1461118c576040517f08c379a000000000000000000000000000000000000000000000000000000000815260040161118390612567565b60405180910390fd5b600481600a0160006101000a81548160ff021916908360068111156111b4576111b3611731565b5b02179055504281600b0181905550817f2dba1d9e78f3192742fc9d510383d669fe8a4fa03d039bd7382ef67119078af760405160405180910390a25050565b60008054906101000a900473ffffffffffffffffffffffffffffffffffffffff1673ffffffffffffffffffffffffffffffffffffffff163373ffffffffffffffffffffffffffffffffffffffff1614611281576040517f08c379a000000000000000000000000000000000000000000000000000000000815260040161127890611e54565b60405180910390fd5b8060058190555050565b60008054906101000a900473ffffffffffffffffffffffffffffffffffffffff1673ffffffffffffffffffffffffffffffffffffffff163373ffffffffffffffffffffffffffffffffffffffff1614611319576040517f08c379a000000000000000000000000000000000000000000000000000000000815260040161131090611e54565b60405180910390fd5b8060048190555050565b60006007600083815260200190815260200160002090506004600681111561134e5761134d611731565b5b81600a0160009054906101000a900460ff16600681111561137257611371611731565b5b146113b2576040517f08c379a00000000000000000000000000000000000000000000000000000000081526004016113a9906125d3565b60405180910390fd5b60055481600b01546113c49190611d68565b421015611406576040517f08c379a00000000000000000000000000000000000000000000000000000000081526004016113fd9061263f565b60405180910390fd5b600581600a0160006101000a81548160ff0219169083600681111561142e5761142d611731565b5b021790555060018160050160006101000a81548160ff021916908315150217905550600160009054906101000a900473ffffffffffffffffffffffffffffffffffffffff1673ffffffffffffffffffffffffffffffffffffffff1663fac45f6f826003015483600401546040518363ffffffff1660e01b81526004016114b592919061265f565b600060405180830381600087803b1580156114cf57600080fd5b505af11580156114e3573d6000803e3d6000fd5b50505050817fbcf6a68a2f901be4a23a41b53acd7697893a7e34def4e28acba584da75283b6760405160405180910390a25050565b60405180610180016040528060008152602001600073ffffffffffffffffffffffffffffffffffffffff168152602001606081526020016000801916815260200160008152602001600015158152602001600081526020016000815260200160008152602001600081526020016000600681111561159957611598611731565b5b8152602001600081525090565b6000604051905090565b600080fd5b600080fd5b6000819050919050565b6115cd816115ba565b81146115d857600080fd5b50565b6000813590506115ea816115c4565b92915050565b600060208284031215611606576116056115b0565b5b6000611614848285016115db565b91505092915050565b611626816115ba565b82525050565b600073ffffffffffffffffffffffffffffffffffffffff82169050919050565b60006116578261162c565b9050919050565b6116678161164c565b82525050565b600081519050919050565b600082825260208201905092915050565b60005b838110156116a757808201518184015260208101905061168c565b60008484015250505050565b6000601f19601f8301169050919050565b60006116cf8261166d565b6116d98185611678565b93506116e9818560208601611689565b6116f2816116b3565b840191505092915050565b6000819050919050565b611710816116fd565b82525050565b60008115159050919050565b61172b81611716565b82525050565b7f4e487b7100000000000000000000000000000000000000000000000000000000600052602160045260246000fd5b6007811061177157611770611731565b5b50565b600081905061178282611760565b919050565b600061179282611774565b9050919050565b6117a281611787565b82525050565b6000610180820190506117be600083018f61161d565b6117cb602083018e61165e565b81810360408301526117dd818d6116c4565b90506117ec606083018c611707565b6117f9608083018b61161d565b61180660a083018a611722565b61181360c083018961161d565b61182060e083018861161d565b61182e61010083018761161d565b61183c61012083018661161d565b61184a610140830185611799565b61185861016083018461161d565b9d9c50505050505050505050505050565b600060208201905061187e600083018461165e565b92915050565b6000602082019050611899600083018461161d565b92915050565b6118a88161164c565b81146118b357600080fd5b50565b6000813590506118c58161189f565b92915050565b600080604083850312156118e2576118e16115b0565b5b60006118f0858286016115db565b9250506020611901858286016118b6565b9150509250929050565b60006020820190506119206000830184611722565b92915050565b600060208201905061193b6000830184611799565b92915050565b600080fd5b600080fd5b600080fd5b60008083601f84011261196657611965611941565b5b8235905067ffffffffffffffff81111561198357611982611946565b5b60208301915083600182028301111561199f5761199e61194b565b5b9250929050565b6119af816116fd565b81146119ba57600080fd5b50565b6000813590506119cc816119a6565b92915050565b600080600080606085870312156119ec576119eb6115b0565b5b600085013567ffffffffffffffff811115611a0a57611a096115b5565b5b611a1687828801611950565b94509450506020611a29878288016119bd565b9250506040611a3a878288016115db565b91505092959194509250565b611a4f816115ba565b82525050565b611a5e8161164c565b82525050565b600082825260208201905092915050565b6000611a808261166d565b611a8a8185611a64565b9350611a9a818560208601611689565b611aa3816116b3565b840191505092915050565b611ab7816116fd565b82525050565b611ac681611716565b82525050565b611ad581611787565b82525050565b600061018083016000830151611af46000860182611a46565b506020830151611b076020860182611a55565b5060408301518482036040860152611b1f8282611a75565b9150506060830151611b346060860182611aae565b506080830151611b476080860182611a46565b5060a0830151611b5a60a0860182611abd565b5060c0830151611b6d60c0860182611a46565b5060e0830151611b8060e0860182611a46565b50610100830151611b95610100860182611a46565b50610120830151611baa610120860182611a46565b50610140830151611bbf610140860182611acc565b50610160830151611bd4610160860182611a46565b508091505092915050565b60006020820190508181036000830152611bf98184611adb565b905092915050565b611c0a81611716565b8114611c1557600080fd5b50565b600081359050611c2781611c01565b92915050565b60008060408385031215611c4457611c436115b0565b5b6000611c52858286016115db565b9250506020611c6385828601611c18565b9150509250929050565b7f4e487b7100000000000000000000000000000000000000000000000000000000600052602260045260246000fd5b60006002820490506001821680611cb457607f821691505b602082108103611cc757611cc6611c6d565b5b50919050565b7f6e6f742061637469766500000000000000000000000000000000000000000000600082015250565b6000611d03600a83611678565b9150611d0e82611ccd565b602082019050919050565b60006020820190508181036000830152611d3281611cf6565b9050919050565b7f4e487b7100000000000000000000000000000000000000000000000000000000600052601160045260246000fd5b6000611d73826115ba565b9150611d7e836115ba565b9250828201905080821115611d9657611d95611d39565b5b92915050565b7f766f74696e67206e6f7420656e64656400000000000000000000000000000000600082015250565b6000611dd2601083611678565b9150611ddd82611d9c565b602082019050919050565b60006020820190508181036000830152611e0181611dc5565b9050919050565b7f6e6f74206f776e65720000000000000000000000000000000000000000000000600082015250565b6000611e3e600983611678565b9150611e4982611e08565b602082019050919050565b60006020820190508181036000830152611e6d81611e31565b9050919050565b600081519050611e83816119a6565b92915050565b600080fd5b7f4e487b7100000000000000000000000000000000000000000000000000000000600052604160045260246000fd5b611ec6826116b3565b810181811067ffffffffffffffff82111715611ee557611ee4611e8e565b5b80604052505050565b6000611ef86115a6565b9050611f048282611ebd565b919050565b600067ffffffffffffffff821115611f2457611f23611e8e565b5b611f2d826116b3565b9050602081019050919050565b6000611f4d611f4884611f09565b611eee565b905082815260208101848484011115611f6957611f68611e89565b5b611f74848285611689565b509392505050565b600082601f830112611f9157611f90611941565b5b8151611fa1848260208601611f3a565b91505092915050565b600081519050611fb981611c01565b92915050565b60008060008060808587031215611fd957611fd86115b0565b5b6000611fe787828801611e74565b945050602085015167ffffffffffffffff811115612008576120076115b5565b5b61201487828801611f7c565b935050604085015167ffffffffffffffff811115612035576120346115b5565b5b61204187828801611f7c565b925050606061205287828801611faa565b91505092959194509250565b7f6e6f742061207265676973746572656420616374697665206167656e74000000600082015250565b6000612094601d83611678565b915061209f8261205e565b602082019050919050565b600060208201905081810360008301526120c381612087565b9050919050565b60006120d5826115ba565b91507fffffffffffffffffffffffffffffffffffffffffffffffffffffffffffffffff820361210757612106611d39565b5b600182019050919050565b60008190508160005260206000209050919050565b60006020601f8301049050919050565b600082821b905092915050565b6000600883026121747fffffffffffffffffffffffffffffffffffffffffffffffffffffffffffffffff82612137565b61217e8683612137565b95508019841693508086168417925050509392505050565b6000819050919050565b60006121bb6121b66121b1846115ba565b612196565b6115ba565b9050919050565b6000819050919050565b6121d5836121a0565b6121e96121e1826121c2565b848454612144565b825550505050565b600090565b6121fe6121f1565b6122098184846121cc565b505050565b5b8181101561222d576122226000826121f6565b60018101905061220f565b5050565b601f8211156122725761224381612112565b61224c84612127565b8101602085101561225b578190505b61226f61226785612127565b83018261220e565b50505b505050565b600082821c905092915050565b600061229560001984600802612277565b1980831691505092915050565b60006122ae8383612284565b9150826002028217905092915050565b6122c78261166d565b67ffffffffffffffff8111156122e0576122df611e8e565b5b6122ea8254611c9c565b6122f5828285612231565b600060209050601f8311600181146123285760008415612316578287015190505b61232085826122a2565b865550612388565b601f19841661233686612112565b60005b8281101561235e57848901518255600182019150602085019450602081019050612339565b8683101561237b5784890151612377601f891682612284565b8355505b6001600288020188555050505b505050505050565b82818337600083830152505050565b60006123ab8385611678565b93506123b8838584612390565b6123c1836116b3565b840190509392505050565b60006080820190506123e1600083018861165e565b81810360208301526123f481868861239f565b90506124036040830185611707565b612410606083018461161d565b9695505050505050565b7f766f74696e6720656e6465640000000000000000000000000000000000000000600082015250565b6000612450600c83611678565b915061245b8261241a565b602082019050919050565b6000602082019050818103600083015261247f81612443565b9050919050565b7f616c726561647920766f74656400000000000000000000000000000000000000600082015250565b60006124bc600d83611678565b91506124c782612486565b602082019050919050565b600060208201905081810360008301526124eb816124af565b9050919050565b6000604082019050612507600083018561165e565b6125146020830184611722565b9392505050565b7f6e6f742073756363656564656400000000000000000000000000000000000000600082015250565b6000612551600d83611678565b915061255c8261251b565b602082019050919050565b6000602082019050818103600083015261258081612544565b9050919050565b7f6e6f742071756575656400000000000000000000000000000000000000000000600082015250565b60006125bd600a83611678565b91506125c882612587565b602082019050919050565b600060208201905081810360008301526125ec816125b0565b9050919050565b7f74696d656c6f636b206163746976650000000000000000000000000000000000600082015250565b6000612629600f83611678565b9150612634826125f3565b602082019050919050565b600060208201905081810360008301526126588161261c565b9050919050565b60006040820190506126746000830185611707565b612681602083018461161d565b939250505056fea264697066735822122019b7729f9362c1ede070ecca4e701e96832a66b190b2c0af95ced9b85cb56c8c64736f6c634300081c0033",
  "linkReferences": {},
  "deployedLinkReferences": {}
}