{
  "abi": [
    {
      "anonymous": false,
      "inputs": [
        {
          "indexed": true,
          "internalType": "bytes32",
          "name": "agent",
          "type": "bytes32"
        },
        {
          "indexed": false,
          "internalType": "bytes32",
          "name": "action",
          "type": "bytes32"
        },
        {
          "indexed": false,
          "internalType": "uint256",
          "name": "slca",
          "type": "uint256"
        },
        {
          "indexed": false,
          "internalType": "string",
          "name": "metaURI",
          "type": "string"
        }
      ],
      "name": "DecisionLogged",
      "type": "event"
    },
    {
      "inputs": [
        {
          "internalType": "bytes32",
          "name": "agent",
          "type": "bytes32"
        },
        {
          "internalType": "bytes32",
          "name": "action",
          "type": "bytes32"
        },
        {
          "internalType": "uint256",
          "name": "slca",
          "type": "uint256"
        },
        {
          "internalType": "string",
          "name": "metaURI",
          "type": "string"
        }
      ],
      "name": "logDecision",
      "outputs": [],
      "stateMutability": "nonpayable",
      "type": "function"
    }
  ],
  "bytecode": "6080604052348015600f57600080fd5b5061018c8061001f6000396000f3fe608060405234801561001057600080fd5b506004361061002b5760003560e01c80639a2b9bdd14610030575b600080fd5b61004361003e36600461008a565b610045565b005b847fa16a19c20f5cc848eb68fb732a30346626588c04bab9bf4a43a472a50eb71e6f8585858560405161007b9493929190610119565b60405180910390a25050505050565b6000806000806000608086880312156100a257600080fd5b853594506020860135935060408601359250606086013567ffffffffffffffff8111156100ce57600080fd5b8601601f810188136100df57600080fd5b803567ffffffffffffffff8111156100f657600080fd5b88602082840101111561010857600080fd5b959894975092955050506020019190565b84815283602082015260606040820152816060820152818360808301376000818301608090810191909152601f909201601f19160101939250505056fea26469706673582212204027b11b2f6beec1856ca11d5063191be5e0aaf08e1c7952a32958dd18ac77b164736f6c634300081e0033",
  "bytecodeSha1": "276fafff93dcb05e7d7b63131e54d9c2d92c17f5",
  "compiler": {
    "evm_version": "istanbul",
    "optimizer": {
      "enabled": true,
      "runs": 200
    },
    "version": "0.8.30+commit.73712a01"
  },
  "contractName": "DecisionLogger",
  "language": "Solidity",
  "natspec": {
    "kind": "dev",
    "methods": {},
    "version": 1
  },
  "opcodes": "PUSH1 0x80 PUSH1 0x40 MSTORE CALLVALUE DUP1 ISZERO PUSH2 0x10 JUMPI PUSH1 0x0 DUP1 REVERT JUMPDEST POP PUSH1 0x4 CALLDATASIZE LT PUSH2 0x2B JUMPI PUSH1 0x0 CALLDATALOAD PUSH1 0xE0 SHR DUP1 PUSH4 0x9A2B9BDD EQ PUSH2 0x30 JUMPI JUMPDEST PUSH1 0x0 DUP1 REVERT JUMPDEST PUSH2 0x43 PUSH2 0x3E CALLDATASIZE PUSH1 0x4 PUSH2 0x8A JUMP JUMPDEST PUSH2 0x45 JUMP JUMPDEST STOP JUMPDEST DUP5 PUSH32 0xA16A19C20F5CC848EB68FB732A30346626588C04BAB9BF4A43A472A50EB71E6F DUP6 DUP6 DUP6 DUP6 PUSH1 0x40 MLOAD PUSH2 0x7B SWAP5 SWAP4 SWAP3 SWAP2 SWAP1 PUSH2 0x119 JUMP JUMPDEST PUSH1 0x40 MLOAD DUP1 SWAP2 SUB SWAP1 LOG2 POP POP POP POP POP JUMP JUMPDEST PUSH1 0x0 DUP1 PUSH1 0x0 DUP1 PUSH1 0x0 PUSH1 0x80 DUP7 DUP9 SUB SLT ISZERO PUSH2 0xA2 JUMPI PUSH1 0x0 DUP1 REVERT JUMPDEST DUP6 CALLDATALOAD SWAP5 POP PUSH1 0x20 DUP7 ADD CALLDATALOAD SWAP4 POP PUSH1 0x40 DUP7 ADD CALLDATALOAD SWAP3 POP PUSH1 0x60 DUP7 ADD CALLDATALOAD PUSH8 0xFFFFFFFFFFFFFFFF DUP2 GT ISZERO PUSH2 0xCE JUMPI PUSH1 0x0 DUP1 REVERT JUMPDEST DUP7 ADD PUSH1 0x1F DUP2 ADD DUP9 SGT PUSH2 0xDF JUMPI PUSH1 0x0 DUP1 REVERT JUMPDEST DUP1 CALLDATALOAD PUSH8 0xFFFFFFFFFFFFFFFF DUP2 GT ISZERO PUSH2 0xF6 JUMPI PUSH1 0x0 DUP1 REVERT JUMPDEST DUP9 PUSH1 0x20 DUP3 DUP5 ADD ADD GT ISZERO PUSH2 0x108 JUMPI PUSH1 0x0 DUP1 REVERT JUMPDEST SWAP6 SWAP9 SWAP5 SWAP8 POP SWAP3 SWAP6 POP POP POP PUSH1 0x20 ADD SWAP2 SWAP1 JUMP JUMPDEST DUP5 DUP2 MSTORE DUP4 PUSH1 0x20 DUP3 ADD MSTORE PUSH1 0x60 PUSH1 0x40 DUP3 ADD MSTORE DUP2 PUSH1 0x60 DUP3 ADD MSTORE DUP2 DUP4 PUSH1 0x80 DUP4 ADD CALLDATACOPY PUSH1 0x0 DUP2 DUP4 ADD PUSH1 0x80 SWAP1 DUP2 ADD SWAP2 SWAP1 SWAP2 MSTORE PUSH1 0x1F SWAP1 SWAP3 ADD PUSH1 0x1F NOT AND ADD ADD SWAP4 SWAP3 POP POP POP JUMP INVALID LOG2 PUSH5 0x6970667358 0x22 SLT KECCAK256 BLOCKHASH 0x27 0xB1 SHL 0x2F PUSH12 0xEEC1856CA11D5063191BE5E0 0xAA CREATE DUP15 SHR PUSH26 0x52A32958DD18AC77B164736F6C634300081E0033000000000000 ",
  "sha1": "0feadf7a0d2dff2bf8df13d66fffa0774a953f03",
  "source": "// SPDX-License-Identifier: MIT\npragma solidity ^0.8.28; contract DecisionLogger{ event DecisionLogged(bytes32 indexed agent, bytes32 action, uint256 slca, string metaURI); function logDecision(bytes32 agent, bytes32 action, uint256 slca, string calldata metaURI) external { emit DecisionLogged(agent,action,slca,metaURI);} }\n",
  "sourcePath": "contracts/hardhat/contracts/DecisionLogger.sol",
  "type": "contract"
}