{
  "abi": [
    {
      "anonymous": false,
      "inputs": [
        {
          "indexed": true,
          "internalType": "bytes32",
          "name": "key",
          "type": "bytes32"
        },
        {
          "indexed": false,
          "internalType": "uint256",
          "name": "oldValue",
          "type": "uint256"
        },
        {
          "indexed": false,
          "internalType": "uint256",
          "name": "newValue",
          "type": "uint256"
        }
      ],
      "name": "PolicyChanged",
      "type": "event"
    },
    {
      "inputs": [
        {
          "internalType": "bytes32",
          "name": "key",
          "type": "bytes32"
        }
      ],
      "name": "getPolicy",
      "outputs": [
        {
          "internalType": "uint256",
          "name": "",
          "type": "uint256"
        }
      ],
      "stateMutability": "view",
      "type": "function"
    },
    {
      "inputs": [
        {
          "internalType": "bytes32",
          "name": "",
          "type": "bytes32"
        }
      ],
      "name": "policy",
      "outputs": [
        {
          "internalType": "uint256",
          "name": "",
          "type": "uint256"
        }
      ],
      "stateMutability": "view",
      "type": "function"
    },
    {
      "inputs": [
        {
          "internalType": "bytes32",
          "name": "key",
          "type": "bytes32"
        },
        {
          "internalType": "uint256",
          "name": "value",
          "type": "uint256"
        }
      ],
      "name": "setPolicy",
      "outputs": [],
      "stateMutability": "nonpayable",
      "type": "function"
    }
  ],
  "bytecode": "6080604052348015600f57600080fd5b506101728061001f6000396000f3fe608060405234801561001057600080fd5b50600436106100415760003560e01c8063115f746c14610046578063a3f685f914610078578063fac45f6f14610098575b600080fd5b610066610054366004610101565b60006020819052908152604090205481565b60405190815260200160405180910390f35b610066610086366004610101565b60009081526020819052604090205490565b6100ab6100a636600461011a565b6100ad565b005b6000828152602081815260409182902080549084905582518181529182018490529184917f6420b4a3383ff43c2ca0098b922a88845c64421472147a8a2e1ca776a6124f6b910160405180910390a2505050565b60006020828403121561011357600080fd5b5035919050565b6000806040838503121561012d57600080fd5b5050803592602090910135915056fea2646970667358221220229367bd386048dba3b58148d2b5c11860096e63518f909df77421541552209164736f6c634300081e0033",
  "bytecodeSha1": "90232a018132c0807f3e64e1d6c7bc33c6145148",
  "compiler": {
    "evm_version": "istanbul",
    "optimizer": {
      "enabled": true,
      "runs": 200
    },
    "version": "0.8.30+commit.73712a01"
  },
  "contractName": "PolicyStore",
  "language": "Solidity",
  "natspec": {
    "kind": "dev",
    "methods": {},
    "version": 1
  },
  "opcodes": "PUSH1 0x80 PUSH1 0x40 MSTORE CALLVALUE DUP1 ISZERO PUSH2 0x10 JUMPI PUSH1 0x0 DUP1 REVERT JUMPDEST POP PUSH1 0x4 CALLDATASIZE LT PUSH2 0x41 JUMPI PUSH1 0x0 CALLDATALOAD PUSH1 0xE0 SHR DUP1 PUSH4 0x115F746C EQ PUSH2 0x46 JUMPI DUP1 PUSH4 0xA3F685F9 EQ PUSH2 0x78 JUMPI DUP1 PUSH4 0xFAC45F6F EQ PUSH2 0x98 JUMPI JUMPDEST PUSH1 0x0 DUP1 REVERT JUMPDEST PUSH2 0x66 PUSH2 0x54 CALLDATASIZE PUSH1 0x4 PUSH2 0x101 JUMP JUMPDEST PUSH1 0x0 PUSH1 0x20 DUP2 SWAP1 MSTORE SWAP1 DUP2 MSTORE PUSH1 0x40 SWAP1 KECCAK256 SLOAD DUP2 JUMP JUMPDEST PUSH1 0x40 MLOAD SWAP1 DUP2 MSTORE PUSH1 0x20 ADD PUSH1 0x40 MLOAD DUP1 SWAP2 SUB SWAP1 RETURN JUMPDEST PUSH2 0x66 PUSH2 0x86 CALLDATASIZE PUSH1 0x4 PUSH2 0x101 JUMP JUMPDEST PUSH1 0x0 SWAP1 DUP2 MSTORE PUSH1 0x20 DUP2 SWAP1 MSTORE PUSH1 0x40 SWAP1 KECCAK256 SLOAD SWAP1 JUMP JUMPDEST PUSH2 0xAB PUSH2 0xA6 CALLDATASIZE PUSH1 0x4 PUSH2 0x11A JUMP JUMPDEST PUSH2 0xAD JUMP JUMPDEST STOP JUMPDEST PUSH1 0x0 DUP3 DUP2 MSTORE PUSH1 0x20 DUP2 DUP2 MSTORE PUSH1 0x40 SWAP2 DUP3 SWAP1 KECCAK256 DUP1 SLOAD SWAP1 DUP5 SWAP1 SSTORE DUP3 MLOAD DUP2 DUP2 MSTORE SWAP2 DUP3 ADD DUP5 SWAP1 MSTORE SWAP2 DUP5 SWAP2 PUSH32 0x6420B4A3383FF43C2CA0098B922A88845C64421472147A8A2E1CA776A6124F6B SWAP2 ADD PUSH1 0x40 MLOAD DUP1 SWAP2 SUB SWAP1 LOG2 POP POP POP JUMP JUMPDEST PUSH1 0x0 PUSH1 0x20 DUP3 DUP5 SUB SLT ISZERO PUSH2 0x113 JUMPI PUSH1 0x0 DUP1 REVERT JUMPDEST POP CALLDATALOAD SWAP2 SWAP1 POP JUMP JUMPDEST PUSH1 0x0 DUP1 PUSH1 0x40 DUP4 DUP6 SUB SLT ISZERO PUSH2 0x12D JUMPI PUSH1 0x0 DUP1 REVERT JUMPDEST POP POP DUP1 CALLDATALOAD SWAP3 PUSH1 0x20 SWAP1 SWAP2 ADD CALLDATALOAD SWAP2 POP JUMP INVALID LOG2 PUSH5 0x6970667358 0x22 SLT KECCAK256 0x22 SWAP4 PUSH8 0xBD386048DBA3B581 BASEFEE 0xD2 0xB5 0xC1 XOR PUSH1 0x9 PUSH15 0x63518F909DF7742154155220916473 PUSH16 0x6C634300081E00330000000000000000 ",
  "sha1": "d691e32169b797b1a9dae7d029c7f966e111de21",
  "source": "// SPDX-License-Identifier: MIT\npragma solidity ^0.8.28; contract PolicyStore{ mapping(bytes32=>uint256) public policy; event PolicyChanged(bytes32 indexed key,uint256 oldValue,uint256 newValue); function setPolicy(bytes32 key,uint256 value) external {uint256 oldv=policy[key]; policy[key]=value; emit PolicyChanged(key,oldv,value);} function getPolicy(bytes32 key) external view returns(uint256){return policy[key];} }\n",
  "sourcePath": "contracts/hardhat/contracts/PolicyStore.sol",
  "type": "contract"
}