{
  "_format": "hh-sol-artifact-1",
  "contractName": "ProvenanceRegistry",
  "sourceName": "contracts/ProvenanceRegistry.sol",
  "abi": [
    {
      "inputs": [],
      "stateMutability": "nonpayable",
      "type": "constructor"
    },
    {
      "anonymous": false,
      "inputs": [
        {
          "indexed": true,
          "internalType": "bytes32",
          "name": "merkleRoot",
          "type": "bytes32"
        },
        {
          "indexed": false,
          "internalType": "string",
          "name": "decisionId",
          "type": "string"
        },
        {
          "indexed": true,
          "internalType": "address",
          "name": "submitter",
          "type": "address"
        },
        {
          "indexed": false,
          "internalType": "uint256",
          "name": "timestamp",
          "type": "uint256"
        }
      ],
      "name": "ProvenanceAnchored",
      "type": "event"
    },
    {
      "inputs": [
        {
          "internalType": "bytes32",
          "name": "merkleRoot",
          "type": "bytes32"
        },
        {
          "internalType": "string",
          "name": "decisionId",
          "type": "string"
        }
      ],
      "name": "anchor",
      "outputs": [],
      "stateMutability": "nonpayable",
      "type": "function"
    },
    {
      "inputs": [],
      "name": "owner",
      "outputs": [
        {
          "internalType": "address",
          "name": "",
          "type": "address"
        }
      ],
      "stateMutability": "view",
      "type": "function"
    },
    {
      "inputs": [
        {
          "internalType": "bytes32",
          "name": "",
          "type": "bytes32"
        }
      ],
      "name": "records",
      "outputs": [
        {
          "internalType": "bytes32",
          "name": "merkleRoot",
          "type": "bytes32"
        },
        {
          "internalType": "uint256",
          "name": "timestamp",
          "type": "uint256"
        },
        {
          "internalType": "string",
          "name": "decisionId",
          "type": "string"
        },
        {
          "internalType": "address",
          "name": "submitter",
          "type": "address"
        }
      ],
      "stateMutability": "view",
      "type": "function"
    },
    {
      "inputs": [
        {
          "internalType": "uint256",
          "name": "",
          "type": "uint256"
        }
      ],
      "name": "rootHashes",
      "outputs": [
        {
          "internalType": "bytes32",
          "name": "",
          "type": "bytes32"
        }
      ],
      "stateMutability": "view",
      "type": "function"
    },
    {
      "inputs": [],
      "name": "totalRecords",
      "outputs": [
        {
          "internalType": "uint256",
          "name": "",
          "type": "uint256"
        }
      ],
      "stateMutability": "view",
      "type": "function"
    },
    {
      "inputs": [
        {
          "internalType": "bytes32",
          "name": "merkleRoot",
          "type": "bytes32"
        }
      ],
      "name": "verify",
      "outputs": [
        {
          "internalType": "bool",
          "name": "exists",
          "type": "bool"
        },
        {
          "internalType": "uint256",
          "name": "timestamp",
          "type": "uint256"
        }
      ],
      "stateMutability": "view",
      "type": "function"
    }
  ],
  "bytecode": "0x6080604052348015600f57600080fd5b50336000806101000a81548173ffffffffffffffffffffffffffffffffffffffff021916908373ffffffffffffffffffffffffffffffffffffffff160217905550610c448061005f6000396000f3fe608060405234801561001057600080fd5b50600436106100625760003560e01c806301e6472514610067578063125f89741461009a5780631a8512ea146100b857806353b93557146100d457806375e36616146101045780638da5cb5b14610135575b600080fd5b610081600480360381019061007c9190610502565b610153565b6040516100919493929190610628565b60405180910390f35b6100a261022b565b6040516100af9190610674565b60405180910390f35b6100d260048036038101906100cd91906106f4565b610238565b005b6100ee60048036038101906100e99190610780565b610449565b6040516100fb91906107ad565b60405180910390f35b61011e60048036038101906101199190610502565b61046d565b60405161012c9291906107e3565b60405180910390f35b61013d61049e565b60405161014a919061080c565b60405180910390f35b600160205280600052604060002060009150905080600001549080600101549080600201805461018290610856565b80601f01602080910402602001604051908101604052809291908181526020018280546101ae90610856565b80156101fb5780601f106101d0576101008083540402835291602001916101fb565b820191906000526020600020905b8154815290600101906020018083116101de57829003601f168201915b5050505050908060030160009054906101000a900473ffffffffffffffffffffffffffffffffffffffff16905084565b6000600280549050905090565b60008054906101000a900473ffffffffffffffffffffffffffffffffffffffff1673ffffffffffffffffffffffffffffffffffffffff163373ffffffffffffffffffffffffffffffffffffffff16146102c6576040517f08c379a00000000000000000000000000000000000000000000000000000000081526004016102bd906108d3565b60405180910390fd5b604051806080016040528084815260200142815260200183838080601f016020809104026020016040519081016040528093929190818152602001838380828437600081840152601f19601f8201169050808301925050505050505081526020013373ffffffffffffffffffffffffffffffffffffffff16815250600160008581526020019081526020016000206000820151816000015560208201518160010155604082015181600201908161037d9190610ace565b5060608201518160030160006101000a81548173ffffffffffffffffffffffffffffffffffffffff021916908373ffffffffffffffffffffffffffffffffffffffff16021790555090505060028390806001815401808255809150506001900390600052602060002001600090919091909150553373ffffffffffffffffffffffffffffffffffffffff16837fc35abe0dca2bf826a2b4ea0c814ecbc74cf404d54314b30a93bef448257c1da884844260405161043c93929190610bdc565b60405180910390a3505050565b6002818154811061045957600080fd5b906000526020600020016000915090505481565b6000806000600160008581526020019081526020016000209050600081600101541181600101549250925050915091565b60008054906101000a900473ffffffffffffffffffffffffffffffffffffffff1681565b600080fd5b600080fd5b6000819050919050565b6104df816104cc565b81146104ea57600080fd5b50565b6000813590506104fc816104d6565b92915050565b600060208284031215610518576105176104c2565b5b6000610526848285016104ed565b91505092915050565b610538816104cc565b82525050565b6000819050919050565b6105518161053e565b82525050565b600081519050919050565b600082825260208201905092915050565b60005b83811015610591578082015181840152602081019050610576565b60008484015250505050565b6000601f19601f8301169050919050565b60006105b982610557565b6105c38185610562565b93506105d3818560208601610573565b6105dc8161059d565b840191505092915050565b600073ffffffffffffffffffffffffffffffffffffffff82169050919050565b6000610612826105e7565b9050919050565b61062281610607565b82525050565b600060808201905061063d600083018761052f565b61064a6020830186610548565b818103604083015261065c81856105ae565b905061066b6060830184610619565b95945050505050565b60006020820190506106896000830184610548565b92915050565b600080fd5b600080fd5b600080fd5b60008083601f8401126106b4576106b361068f565b5b8235905067ffffffffffffffff8111156106d1576106d0610694565b5b6020830191508360018202830111156106ed576106ec610699565b5b9250929050565b60008060006040848603121561070d5761070c6104c2565b5b600061071b868287016104ed565b935050602084013567ffffffffffffffff81111561073c5761073b6104c7565b5b6107488682870161069e565b92509250509250925092565b61075d8161053e565b811461076857600080fd5b50565b60008135905061077a81610754565b92915050565b600060208284031215610796576107956104c2565b5b60006107a48482850161076b565b91505092915050565b60006020820190506107c2600083018461052f565b92915050565b60008115159050919050565b6107dd816107c8565b82525050565b60006040820190506107f860008301856107d4565b6108056020830184610548565b9392505050565b60006020820190506108216000830184610619565b92915050565b7f4e487b7100000000000000000000000000000000000000000000000000000000600052602260045260246000fd5b6000600282049050600182168061086e57607f821691505b60208210810361088157610880610827565b5b50919050565b7f6e6f74206f776e65720000000000000000000000000000000000000000000000600082015250565b60006108bd600983610562565b91506108c882610887565b602082019050919050565b600060208201905081810360008301526108ec816108b0565b9050919050565b7f4e487b7100000000000000000000000000000000000000000000000000000000600052604160045260246000fd5b60008190508160005260206000209050919050565b60006020601f8301049050919050565b600082821b905092915050565b6000600883026109847fffffffffffffffffffffffffffffffffffffffffffffffffffffffffffffffff82610947565b61098e8683610947565b95508019841693508086168417925050509392505050565b6000819050919050565b60006109cb6109c66109c18461053e565b6109a6565b61053e565b9050919050565b6000819050919050565b6109e5836109b0565b6109f96109f1826109d2565b848454610954565b825550505050565b600090565b610a0e610a01565b610a198184846109dc565b505050565b5b81811015610a3d57610a32600082610a06565b600181019050610a1f565b5050565b601f821115610a8257610a5381610922565b610a5c84610937565b81016020851015610a6b578190505b610a7f610a7785610937565b830182610a1e565b50505b505050565b600082821c905092915050565b6000610aa560001984600802610a87565b1980831691505092915050565b6000610abe8383610a94565b9150826002028217905092915050565b610ad782610557565b67ffffffffffffffff811115610af057610aef6108f3565b5b610afa8254610856565b610b05828285610a41565b600060209050601f831160018114610b385760008415610b26578287015190505b610b308582610ab2565b865550610b98565b601f198416610b4686610922565b60005b82811015610b6e57848901518255600182019150602085019450602081019050610b49565b86831015610b8b5784890151610b87601f891682610a94565b8355505b6001600288020188555050505b505050505050565b82818337600083830152505050565b6000610bbb8385610562565b9350610bc8838584610ba0565b610bd18361059d565b840190509392505050565b60006040820190508181036000830152610bf7818587610baf565b9050610c066020830184610548565b94935050505056fea26469706673582212200623ccdd214cc37d79a0f5c559376171cd8ee8a66d3660d2e6d32579433d2e3a64736f6c634300081c0033",
  "linkReferences": {},
  "deployedLinkReferences": {}
}