{
  "abi": [
    {
      "anonymous": false,
      "inputs": [
        {
          "indexed": true,
          "internalType": "address",
          "name": "to",
          "type": "address"
        },
        {
          "indexed": false,
          "internalType": "uint256",
          "name": "amount",
          "type": "uint256"
        }
      ],
      "name": "Rewarded",
      "type": "event"
    },
    {
      "anonymous": false,
      "inputs": [
        {
          "indexed": true,
          "internalType": "address",
          "name": "from",
          "type": "address"
        },
        {
          "indexed": false,
          "internalType": "uint256",
          "name": "amount",
          "type": "uint256"
        }
      ],
      "name": "Slashed",
      "type": "event"
    },
    {
      "inputs": [
        {
          "internalType": "address",
          "name": "",
          "type": "address"
        }
      ],
      "name": "balance",
      "outputs": [
        {
          "internalType": "uint256",
          "name": "",
          "type": "uint256"
        }
      ],
      "stateMutability": "view",
      "type": "function"
    },
    {
      "inputs": [
        {
          "internalType": "address",
          "name": "to",
          "type": "address"
        },
        {
          "internalType": "uint256",
          "name": "amount",
          "type": "uint256"
        }
      ],
      "name": "reward",
      "outputs": [],
      "stateMutability": "nonpayable",
      "type": "function"
    },
    {
      "inputs": [
        {
          "internalType": "address",
          "name": "from",
          "type": "address"
        },
        {
          "internalType": "uint256",
          "name": "amount",
          "type": "uint256"
        }
      ],
      "name": "slash",
      "outputs": [],
      "stateMutability": "nonpayable",
      "type": "function"
    }
  ],
  "bytecode": "6080604052348015600f57600080fd5b5061029b8061001f6000396000f3fe608060405234801561001057600080fd5b50600436106100415760003560e01c806302fb4d851461004657806321670f221461005b578063e3d670d71461006e575b600080fd5b6100596100543660046101d7565b6100a0565b005b6100596100693660046101d7565b610153565b61008e61007c366004610201565b60006020819052908152604090205481565b60405190815260200160405180910390f35b6001600160a01b03821660009081526020819052604090205481116100f2576001600160a01b038216600090815260208190526040812080548392906100e7908490610239565b9091555061010c9050565b6001600160a01b0382166000908152602081905260408120555b816001600160a01b03167f4ed05e9673c26d2ed44f7ef6a7f2942df0ee3b5e1e17db4b99f9dcd261a339cd8260405161014791815260200190565b60405180910390a25050565b6001600160a01b0382166000908152602081905260408120805483929061017b908490610252565b90915550506040518181526001600160a01b038316907fb3b7a071186534c03b40695710096f289fd4ed6c1a374aff0bb648955e4fe56390602001610147565b80356001600160a01b03811681146101d257600080fd5b919050565b600080604083850312156101ea57600080fd5b6101f3836101bb565b946020939093013593505050565b60006020828403121561021357600080fd5b61021c826101bb565b9392505050565b634e487b7160e01b600052601160045260246000fd5b8181038181111561024c5761024c610223565b92915050565b8082018082111561024c5761024c61022356fea26469706673582212207628521eac94ab83cc3877e1a1673b2c5c8992328b74deed1ec5010c6067efe264736f6c634300081e0033",
  "bytecodeSha1": "f52fed14b9a9f0c0df1c7de6c5fa9b987af474e2",
  "compiler": {
    "evm_version": "istanbul",
    "optimizer": {
      "enabled": true,
      "runs": 200
    },
    "version": "0.8.30+commit.73712a01"
  },
  "contractName": "SLCARewards",
  "language": "Solidity",
  "natspec": {
    "kind": "dev",
    "methods": {},
    "version": 1
  },
  "opcodes": "PUSH1 0x80 PUSH1 0x40 MSTORE CALLVALUE DUP1 ISZERO PUSH2 0x10 JUMPI PUSH1 0x0 DUP1 REVERT JUMPDEST POP PUSH1 0x4 CALLDATASIZE LT PUSH2 0x41 JUMPI PUSH1 0x0 CALLDATALOAD PUSH1 0xE0 SHR DUP1 PUSH4 0x2FB4D85 EQ PUSH2 0x46 JUMPI DUP1 PUSH4 0x21670F22 EQ PUSH2 0x5B JUMPI DUP1 PUSH4 0xE3D670D7 EQ PUSH2 0x6E JUMPI JUMPDEST PUSH1 0x0 DUP1 REVERT JUMPDEST PUSH2 0x59 PUSH2 0x54 CALLDATASIZE PUSH1 0x4 PUSH2 0x1D7 JUMP JUMPDEST PUSH2 0xA0 JUMP JUMPDEST STOP JUMPDEST PUSH2 0x59 PUSH2 0x69 CALLDATASIZE PUSH1 0x4 PUSH2 0x1D7 JUMP JUMPDEST PUSH2 0x153 JUMP JUMPDEST PUSH2 0x8E PUSH2 0x7C CALLDATASIZE PUSH1 0x4 PUSH2 0x201 JUMP JUMPDEST PUSH1 0x0 PUSH1 0x20 DUP2 SWAP1 MSTORE SWAP1 DUP2 MSTORE PUSH1 0x40 SWAP1 KECCAK256 SLOAD DUP2 JUMP JUMPDEST PUSH1 0x40 MLOAD SWAP1 DUP2 MSTORE PUSH1 0x20 ADD PUSH1 0x40 MLOAD DUP1 SWAP2 SUB SWAP1 RETURN JUMPDEST PUSH1 0x1 PUSH1 0x1 PUSH1 0xA0 SHL SUB DUP3 AND PUSH1 0x0 SWAP1 DUP2 MSTORE PUSH1 0x20 DUP2 SWAP1 MSTORE PUSH1 0x40 SWAP1 KECCAK256 SLOAD DUP2 GT PUSH2 0xF2 JUMPI PUSH1 0x1 PUSH1 0x1 PUSH1 0xA0 SHL SUB DUP3 AND PUSH1 0x0 SWAP1 DUP2 MSTORE PUSH1 0x20 DUP2 SWAP1 MSTORE PUSH1 0x40 DUP2 KECCAK256 DUP1 SLOAD DUP4 SWAP3 SWAP1 PUSH2 0xE7 SWAP1 DUP5 SWAP1 PUSH2 0x239 JUMP JUMPDEST SWAP1 SWAP2 SSTORE POP PUSH2 0x10C SWAP1 POP JUMP JUMPDEST PUSH1 0x1 PUSH1 0x1 PUSH1 0xA0 SHL SUB DUP3 AND PUSH1 0x0 SWAP1 DUP2 MSTORE PUSH1 0x20 DUP2 SWAP1 MSTORE PUSH1 0x40 DUP2 KECCAK256 SSTORE JUMPDEST DUP2 PUSH1 0x1 PUSH1 0x1 PUSH1 0xA0 SHL SUB AND PUSH32 0x4ED05E9673C26D2ED44F7EF6A7F2942DF0EE3B5E1E17DB4B99F9DCD261A339CD DUP3 PUSH1 0x40 MLOAD PUSH2 0x147 SWAP2 DUP2 MSTORE PUSH1 0x20 ADD SWAP1 JUMP JUMPDEST PUSH1 0x40 MLOAD DUP1 SWAP2 SUB SWAP1 LOG2 POP POP JUMP JUMPDEST PUSH1 0x1 PUSH1 0x1 PUSH1 0xA0 SHL SUB DUP3 AND PUSH1 0x0 SWAP1 DUP2 MSTORE PUSH1 0x20 DUP2 SWAP1 MSTORE PUSH1 0x40 DUP2 KECCAK256 DUP1 SLOAD DUP4 SWAP3 SWAP1 PUSH2 0x17B SWAP1 DUP5 SWAP1 PUSH2 0x252 JUMP JUMPDEST SWAP1 SWAP2 SSTORE POP POP PUSH1 0x40 MLOAD DUP2 DUP2 MSTORE PUSH1 0x1 PUSH1 0x1 PUSH1 0xA0 SHL SUB DUP4 AND SWAP1 PUSH32 0xB3B7A071186534C03B40695710096F289FD4ED6C1A374AFF0BB648955E4FE563 SWAP1 PUSH1 0x20 ADD PUSH2 0x147 JUMP JUMPDEST DUP1 CALLDATALOAD PUSH1 0x1 PUSH1 0x1 PUSH1 0xA0 SHL SUB DUP2 AND DUP2 EQ PUSH2 0x1D2 JUMPI PUSH1 0x0 DUP1 REVERT JUMPDEST SWAP2 SWAP1 POP JUMP JUMPDEST PUSH1 0x0 DUP1 PUSH1 0x40 DUP4 DUP6 SUB SLT ISZERO PUSH2 0x1EA JUMPI PUSH1 0x0 DUP1 REVERT JUMPDEST PUSH2 0x1F3 DUP4 PUSH2 0x1BB JUMP JUMPDEST SWAP5 PUSH1 0x20 SWAP4 SWAP1 SWAP4 ADD CALLDATALOAD SWAP4 POP POP POP JUMP JUMPDEST PUSH1 0x0 PUSH1 0x20 DUP3 DUP5 SUB SLT ISZERO PUSH2 0x213 JUMPI PUSH1 0x0 DUP1 REVERT JUMPDEST PUSH2 0x21C DUP3 PUSH2 0x1BB JUMP JUMPDEST SWAP4 SWAP3 POP POP POP JUMP JUMPDEST PUSH4 0x4E487B71 PUSH1 0xE0 SHL PUSH1 0x0 MSTORE PUSH1 0x11 PUSH1 0x4 MSTORE PUSH1 0x24 PUSH1 0x0 REVERT JUMPDEST DUP2 DUP2 SUB DUP2 DUP2 GT ISZERO PUSH2 0x24C JUMPI PUSH2 0x24C PUSH2 0x223 JUMP JUMPDEST SWAP3 SWAP2 POP POP JUMP JUMPDEST DUP1 DUP3 ADD DUP1 DUP3 GT ISZERO PUSH2 0x24C JUMPI PUSH2 0x24C PUSH2 0x223 JUMP INVALID LOG2 PUSH5 0x6970667358 0x22 SLT KECCAK256 PUSH23 0x28521EAC94AB83CC3877E1A1673B2C5C8992328B74DEED 0x1E 0xC5 ADD 0xC PUSH1 0x67 0xEF 0xE2 PUSH5 0x736F6C6343 STOP ADDMOD 0x1E STOP CALLER ",
  "sha1": "bd37fd4e24a3efc2c98d54122430e357903786f9",
  "source": "// SPDX-License-Identifier: MIT\npragma solidity ^0.8.28; contract SLCARewards{ mapping(address=>uint256) public balance; event Rewarded(address indexed to,uint256 amount); event Slashed(address indexed from,uint256 amount); function reward(address to,uint256 amount) external {balance[to]+=amount; emit Rewarded(to,amount);} function slash(address from,uint256 amount) external { if(balance[from]>=amount) balance[from]-=amount; else balance[from]=0; emit Slashed(from,amount);} }\n",
  "sourcePath": "contracts/hardhat/contracts/SLCARewards.sol",
  "type": "contract"
}