{"contracts/DecisionLogger.sol":{"DecisionLogger":{"abi":[{"anonymous":false,"inputs":[{"indexed":true,"internalType":"bytes32","name":"id","type":"bytes32"},{"indexed":false,"internalType":"uint256","name":"ts","type":"uint256"},{"indexed":false,"internalType":"string","name":"agent","type":"string"},{"indexed":false,"internalType":"string","name":"role","type":"string"},{"indexed":false,"internalType":"string","name":"action","type":"string"},{"indexed":false,"internalType":"uint256","name":"slca_milli","type":"uint256"},{"indexed":false,"internalType":"uint256","name":"carbon_milli","type":"uint256"},{"indexed":false,"internalType":"string","name":"note","type":"string"}],"name":"DecisionLogged","type":"event"},{"inputs":[{"internalType":"uint256","name":"ts","type":"uint256"},{"internalType":"string","name":"agent","type":"string"},{"internalType":"string","name":"role","type":"string"},{"internalType":"string","name":"action","type":"string"},{"internalType":"uint256","name":"slca_milli","type":"uint256"},{"internalType":"uint256","name":"carbon_milli","type":"uint256"},{"internalType":"string","name":"note","type":"string"}],"name":"logDecision","outputs":[{"internalType":"bytes32","name":"id","type":"bytes32"}],"stateMutability":"nonpayable","type":"function"},{"inputs":[{"internalType":"bytes32","name":"","type":"bytes32"}],"name":"memos","outputs":[{"internalType":"uint256","name":"ts","type":"uint256"},{"internalType":"string","name":"agent","type":"string"},{"internalType":"string","name":"role","type":"string"},{"internalType":"string","name":"action","type":"string"},{"internalType":"uint256","name":"slca_milli","type":"uint256"},{"internalType":"uint256","name":"carbon_milli","type":"uint256"},{"internalType":"string","name":"note","type":"string"}],"stateMutability":"view","type":"function"}],"evm":{"bytecode":{"linkReferences":{},"object":"6080604052348015600f57600080fd5b50610d8b8061001f6000396000f3fe608060405234801561001057600080fd5b50600436106100365760003560e01c806374a449a11461003b57806393c56f2a1461006b575b600080fd5b61005560048036038101906100509190610606565b6100a1565b6040516100629190610743565b60405180910390f35b6100856004803603810190610080919061078a565b6102ff565b6040516100989796959493929190610856565b60405180910390f35b60008b8b8b8989336040516020016100be9695949392919061095e565b6040516020818303038152906040528051906020012090506040518060e001604052808d81526020018c8c8080601f016020809104026020016040519081016040528093929190818152602001838380828437600081840152601f19601f8201169050808301925050505050505081526020018a8a8080601f016020809104026020016040519081016040528093929190818152602001838380828437600081840152601f19601f82011690508083019250505050505050815260200188888080601f016020809104026020016040519081016040528093929190818152602001838380828437600081840152601f19601f82011690508083019250505050505050815260200186815260200185815260200184848080601f016020809104026020016040519081016040528093929190818152602001838380828437600081840152601f19601f8201169050808301925050505050505081525060008083815260200190815260200160002060008201518160000155602082015181600101908161024a9190610bf0565b5060408201518160020190816102609190610bf0565b5060608201518160030190816102769190610bf0565b506080820151816004015560a0820151816005015560c08201518160060190816102a09190610bf0565b50905050807f7af378071a0805301f6712c6e435478cc1e7d3c8cef815e78849fb7c548a7ed08d8d8d8d8d8d8d8d8d8d8d6040516102e89b9a99989796959493929190610cc2565b60405180910390a29b9a5050505050505050505050565b600060205280600052604060002060009150905080600001549080600101805461032890610a13565b80601f016020809104026020016040519081016040528092919081815260200182805461035490610a13565b80156103a15780601f10610376576101008083540402835291602001916103a1565b820191906000526020600020905b81548152906001019060200180831161038457829003601f168201915b5050505050908060020180546103b690610a13565b80601f01602080910402602001604051908101604052809291908181526020018280546103e290610a13565b801561042f5780601f106104045761010080835404028352916020019161042f565b820191906000526020600020905b81548152906001019060200180831161041257829003601f168201915b50505050509080600301805461044490610a13565b80601f016020809104026020016040519081016040528092919081815260200182805461047090610a13565b80156104bd5780601f10610492576101008083540402835291602001916104bd565b820191906000526020600020905b8154815290600101906020018083116104a057829003601f168201915b5050505050908060040154908060050154908060060180546104de90610a13565b80601f016020809104026020016040519081016040528092919081815260200182805461050a90610a13565b80156105575780601f1061052c57610100808354040283529160200191610557565b820191906000526020600020905b81548152906001019060200180831161053a57829003601f168201915b5050505050905087565b600080fd5b600080fd5b6000819050919050565b61057e8161056b565b811461058957600080fd5b50565b60008135905061059b81610575565b92915050565b600080fd5b600080fd5b600080fd5b60008083601f8401126105c6576105c56105a1565b5b8235905067ffffffffffffffff8111156105e3576105e26105a6565b5b6020830191508360018202830111156105ff576105fe6105ab565b5b9250929050565b600080600080600080600080600080600060e08c8e03121561062b5761062a610561565b5b60006106398e828f0161058c565b9b505060208c013567ffffffffffffffff81111561065a57610659610566565b5b6106668e828f016105b0565b9a509a505060408c013567ffffffffffffffff81111561068957610688610566565b5b6106958e828f016105b0565b985098505060608c013567ffffffffffffffff8111156106b8576106b7610566565b5b6106c48e828f016105b0565b965096505060806106d78e828f0161058c565b94505060a06106e88e828f0161058c565b93505060c08c013567ffffffffffffffff81111561070957610708610566565b5b6107158e828f016105b0565b92509250509295989b509295989b9093969950565b6000819050919050565b61073d8161072a565b82525050565b60006020820190506107586000830184610734565b92915050565b6107678161072a565b811461077257600080fd5b50565b6000813590506107848161075e565b92915050565b6000602082840312156107a05761079f610561565b5b60006107ae84828501610775565b91505092915050565b6107c08161056b565b82525050565b600081519050919050565b600082825260208201905092915050565b60005b838110156108005780820151818401526020810190506107e5565b60008484015250505050565b6000601f19601f8301169050919050565b6000610828826107c6565b61083281856107d1565b93506108428185602086016107e2565b61084b8161080c565b840191505092915050565b600060e08201905061086b600083018a6107b7565b818103602083015261087d818961081d565b90508181036040830152610891818861081d565b905081810360608301526108a5818761081d565b90506108b460808301866107b7565b6108c160a08301856107b7565b81810360c08301526108d3818461081d565b905098975050505050505050565b82818337600083830152505050565b60006108fc83856107d1565b93506109098385846108e1565b6109128361080c565b840190509392505050565b600073ffffffffffffffffffffffffffffffffffffffff82169050919050565b60006109488261091d565b9050919050565b6109588161093d565b82525050565b600060808201905061097360008301896107b7565b81810360208301526109868187896108f0565b9050818103604083015261099b8185876108f0565b90506109aa606083018461094f565b979650505050505050565b7f4e487b7100000000000000000000000000000000000000000000000000000000600052604160045260246000fd5b7f4e487b7100000000000000000000000000000000000000000000000000000000600052602260045260246000fd5b60006002820490506001821680610a2b57607f821691505b602082108103610a3e57610a3d6109e4565b5b50919050565b60008190508160005260206000209050919050565b60006020601f8301049050919050565b600082821b905092915050565b600060088302610aa67fffffffffffffffffffffffffffffffffffffffffffffffffffffffffffffffff82610a69565b610ab08683610a69565b95508019841693508086168417925050509392505050565b6000819050919050565b6000610aed610ae8610ae38461056b565b610ac8565b61056b565b9050919050565b6000819050919050565b610b0783610ad2565b610b1b610b1382610af4565b848454610a76565b825550505050565b600090565b610b30610b23565b610b3b818484610afe565b505050565b5b81811015610b5f57610b54600082610b28565b600181019050610b41565b5050565b601f821115610ba457610b7581610a44565b610b7e84610a59565b81016020851015610b8d578190505b610ba1610b9985610a59565b830182610b40565b50505b505050565b600082821c905092915050565b6000610bc760001984600802610ba9565b1980831691505092915050565b6000610be08383610bb6565b9150826002028217905092915050565b610bf9826107c6565b67ffffffffffffffff811115610c1257610c116109b5565b5b610c1c8254610a13565b610c27828285610b63565b600060209050601f831160018114610c5a5760008415610c48578287015190505b610c528582610bd4565b865550610cba565b601f198416610c6886610a44565b60005b82811015610c9057848901518255600182019150602085019450602081019050610c6b565b86831015610cad5784890151610ca9601f891682610bb6565b8355505b6001600288020188555050505b505050505050565b600060e082019050610cd7600083018e6107b7565b8181036020830152610cea818c8e6108f0565b90508181036040830152610cff818a8c6108f0565b90508181036060830152610d1481888a6108f0565b9050610d2360808301876107b7565b610d3060a08301866107b7565b81810360c0830152610d438184866108f0565b90509c9b50505050505050505050505056fea2646970667358221220ae4f29e02afdd929764a8e12a3d33a401d7fcefd836fca513b71f2a04b5e708d64736f6c634300081c0033","opcodes":"PUSH1 0x80 PUSH1 0x40 MSTORE CALLVALUE DUP1 ISZERO PUSH1 0xF JUMPI PUSH1 0x0 DUP1 REVERT JUMPDEST POP PUSH2 0xD8B DUP1 PUSH2 0x1F PUSH1 0x0 CODECOPY PUSH1 0x0 RETURN INVALID PUSH1 0x80 PUSH1 0x40 MSTORE CALLVALUE DUP1 ISZERO PUSH2 0x10 JUMPI PUSH1 0x0 DUP1 REVERT JUMPDEST POP PUSH1 0x4 CALLDATASIZE LT PUSH2 0x36 JUMPI PUSH1 0x0 CALLDATALOAD PUSH1 0xE0 SHR DUP1 PUSH4 0x74A449A1 EQ PUSH2 0x3B JUMPI DUP1 PUSH4 0x93C56F2A EQ PUSH2 0x6B JUMPI JUMPDEST PUSH1 0x0 DUP1 REVERT JUMPDEST PUSH2 0x55 PUSH1 0x4 DUP1 CALLDATASIZE SUB DUP2 ADD SWAP1 PUSH2 0x50 SWAP2 SWAP1 PUSH2 0x606 JUMP JUMPDEST PUSH2 0xA1 JUMP JUMPDEST PUSH1 0x40 MLOAD PUSH2 0x62 SWAP2 SWAP1 PUSH2 0x743 JUMP JUMPDEST PUSH1 0x40 MLOAD DUP1 SWAP2 SUB SWAP1 RETURN JUMPDEST PUSH2 0x85 PUSH1 0x4 DUP1 CALLDATASIZE SUB DUP2 ADD SWAP1 PUSH2 0x80 SWAP2 SWAP1 PUSH2 0x78A JUMP JUMPDEST PUSH2 0x2FF JUMP JUMPDEST PUSH1 0x40 MLOAD PUSH2 0x98 SWAP8 SWAP7 SWAP6 SWAP5 SWAP4 SWAP3 SWAP2 SWAP1 PUSH2 0x856 JUMP JUMPDEST PUSH1 0x40 MLOAD DUP1 SWAP2 SUB SWAP1 RETURN JUMPDEST PUSH1 0x0 DUP12 DUP12 DUP12 DUP10 DUP10 CALLER PUSH1 0x40 MLOAD PUSH1 0x20 ADD PUSH2 0xBE SWAP7 SWAP6 SWAP5 SWAP4 SWAP3 SWAP2 SWAP1 PUSH2 0x95E JUMP JUMPDEST PUSH1 0x40 MLOAD PUSH1 0x20 DUP2 DUP4 SUB SUB DUP2 MSTORE SWAP1 PUSH1 0x40 MSTORE DUP1 MLOAD SWAP1 PUSH1 0x20 ADD KECCAK256 SWAP1 POP PUSH1 0x40 MLOAD DUP1 PUSH1 0xE0 ADD PUSH1 0x40 MSTORE DUP1 DUP14 DUP2 MSTORE PUSH1 0x20 ADD DUP13 DUP13 DUP1 DUP1 PUSH1 0x1F ADD PUSH1 0x20 DUP1 SWAP2 DIV MUL PUSH1 0x20 ADD PUSH1 0x40 MLOAD SWAP1 DUP2 ADD PUSH1 0x40 MSTORE DUP1 SWAP4 SWAP3 SWAP2 SWAP1 DUP2 DUP2 MSTORE PUSH1 0x20 ADD DUP4 DUP4 DUP1 DUP3 DUP5 CALLDATACOPY PUSH1 0x0 DUP2 DUP5 ADD MSTORE PUSH1 0x1F NOT PUSH1 0x1F DUP3 ADD AND SWAP1 POP DUP1 DUP4 ADD SWAP3 POP POP POP POP POP POP POP DUP2 MSTORE PUSH1 0x20 ADD DUP11 DUP11 DUP1 DUP1 PUSH1 0x1F ADD PUSH1 0x20 DUP1 SWAP2 DIV MUL PUSH1 0x20 ADD PUSH1 0x40 MLOAD SWAP1 DUP2 ADD PUSH1 0x40 MSTORE DUP1 SWAP4 SWAP3 SWAP2 SWAP1 DUP2 DUP2 MSTORE PUSH1 0x20 ADD DUP4 DUP4 DUP1 DUP3 DUP5 CALLDATACOPY PUSH1 0x0 DUP2 DUP5 ADD MSTORE PUSH1 0x1F NOT PUSH1 0x1F DUP3 ADD AND SWAP1 POP DUP1 DUP4 ADD SWAP3 POP POP POP POP POP POP POP DUP2 MSTORE PUSH1 0x20 ADD DUP9 DUP9 DUP1 DUP1 PUSH1 0x1F ADD PUSH1 0x20 DUP1 SWAP2 DIV MUL PUSH1 0x20 ADD PUSH1 0x40 MLOAD SWAP1 DUP2 ADD PUSH1 0x40 MSTORE DUP1 SWAP4 SWAP3 SWAP2 SWAP1 DUP2 DUP2 MSTORE PUSH1 0x20 ADD DUP4 DUP4 DUP1 DUP3 DUP5 CALLDATACOPY PUSH1 0x0 DUP2 DUP5 ADD MSTORE PUSH1 0x1F NOT PUSH1 0x1F DUP3 ADD AND SWAP1 POP DUP1 DUP4 ADD SWAP3 POP POP POP POP POP POP POP DUP2 MSTORE PUSH1 0x20 ADD DUP7 DUP2 MSTORE PUSH1 0x20 ADD DUP6 DUP2 MSTORE PUSH1 0x20 ADD DUP5 DUP5 DUP1 DUP1 PUSH1 0x1F ADD PUSH1 0x20 DUP1 SWAP2 DIV MUL PUSH1 0x20 ADD PUSH1 0x40 MLOAD SWAP1 DUP2 ADD PUSH1 0x40 MSTORE DUP1 SWAP4 SWAP3 SWAP2 SWAP1 DUP2 DUP2 MSTORE PUSH1 0x20 ADD DUP4 DUP4 DUP1 DUP3 DUP5 CALLDATACOPY PUSH1 0x0 DUP2 DUP5 ADD MSTORE PUSH1 0x1F NOT PUSH1 0x1F DUP3 ADD AND SWAP1 POP DUP1 DUP4 ADD SWAP3 POP POP POP POP POP POP POP DUP2 MSTORE POP PUSH1 0x0 DUP1 DUP4 DUP2 MSTORE PUSH1 0x20 ADD SWAP1 DUP2 MSTORE PUSH1 0x20 ADD PUSH1 0x0 KECCAK256 PUSH1 0x0 DUP3 ADD MLOAD DUP2 PUSH1 0x0 ADD SSTORE PUSH1 0x20 DUP3 ADD MLOAD DUP2 PUSH1 0x1 ADD SWAP1 DUP2 PUSH2 0x24A SWAP2 SWAP1 PUSH2 0xBF0 JUMP JUMPDEST POP PUSH1 0x40 DUP3 ADD MLOAD DUP2 PUSH1 0x2 ADD SWAP1 DUP2 PUSH2 0x260 SWAP2 SWAP1 PUSH2 0xBF0 JUMP JUMPDEST POP PUSH1 0x60 DUP3 ADD MLOAD DUP2 PUSH1 0x3 ADD SWAP1 DUP2 PUSH2 0x276 SWAP2 SWAP1 PUSH2 0xBF0 JUMP JUMPDEST POP PUSH1 0x80 DUP3 ADD MLOAD DUP2 PUSH1 0x4 ADD SSTORE PUSH1 0xA0 DUP3 ADD MLOAD DUP2 PUSH1 0x5 ADD SSTORE PUSH1 0xC0 DUP3 ADD MLOAD DUP2 PUSH1 0x6 ADD SWAP1 DUP2 PUSH2 0x2A0 SWAP2 SWAP1 PUSH2 0xBF0 JUMP JUMPDEST POP SWAP1 POP POP DUP1 PUSH32 0x7AF378071A0805301F6712C6E435478CC1E7D3C8CEF815E78849FB7C548A7ED0 DUP14 DUP14 DUP14 DUP14 DUP14 DUP14 DUP14 DUP14 DUP14 DUP14 DUP14 PUSH1 0x40 MLOAD PUSH2 0x2E8 SWAP12 SWAP11 SWAP10 SWAP9 SWAP8 SWAP7 SWAP6 SWAP5 SWAP4 SWAP3 SWAP2 SWAP1 PUSH2 0xCC2 JUMP JUMPDEST PUSH1 0x40 MLOAD DUP1 SWAP2 SUB SWAP1 LOG2 SWAP12 SWAP11 POP POP POP POP POP POP POP POP POP POP POP JUMP JUMPDEST PUSH1 0x0 PUSH1 0x20 MSTORE DUP1 PUSH1 0x0 MSTORE PUSH1 0x40 PUSH1 0x0 KECCAK256 PUSH1 0x0 SWAP2 POP SWAP1 POP DUP1 PUSH1 0x0 ADD SLOAD SWAP1 DUP1 PUSH1 0x1 ADD DUP1 SLOAD PUSH2 0x328 SWAP1 PUSH2 0xA13 JUMP JUMPDEST DUP1 PUSH1 0x1F ADD PUSH1 0x20 DUP1 SWAP2 DIV MUL PUSH1 0x20 ADD PUSH1 0x40 MLOAD SWAP1 DUP2 ADD PUSH1 0x40 MSTORE DUP1 SWAP3 SWAP2 SWAP1 DUP2 DUP2 MSTORE PUSH1 0x20 ADD DUP3 DUP1 SLOAD PUSH2 0x354 SWAP1 PUSH2 0xA13 JUMP JUMPDEST DUP1 ISZERO PUSH2 0x3A1 JUMPI DUP1 PUSH1 0x1F LT PUSH2 0x376 JUMPI PUSH2 0x100 DUP1 DUP4 SLOAD DIV MUL DUP4 MSTORE SWAP2 PUSH1 0x20 ADD SWAP2 PUSH2 0x3A1 JUMP JUMPDEST DUP3 ADD SWAP2 SWAP1 PUSH1 0x0 MSTORE PUSH1 0x20 PUSH1 0x0 KECCAK256 SWAP1 JUMPDEST DUP2 SLOAD DUP2 MSTORE SWAP1 PUSH1 0x1 ADD SWAP1 PUSH1 0x20 ADD DUP1 DUP4 GT PUSH2 0x384 JUMPI DUP3 SWAP1 SUB PUSH1 0x1F AND DUP3 ADD SWAP2 JUMPDEST POP POP POP POP POP SWAP1 DUP1 PUSH1 0x2 ADD DUP1 SLOAD PUSH2 0x3B6 SWAP1 PUSH2 0xA13 JUMP JUMPDEST DUP1 PUSH1 0x1F ADD PUSH1 0x20 DUP1 SWAP2 DIV MUL PUSH1 0x20 ADD PUSH1 0x40 MLOAD SWAP1 DUP2 ADD PUSH1 0x40 MSTORE DUP1 SWAP3 SWAP2 SWAP1 DUP2 DUP2 MSTORE PUSH1 0x20 ADD DUP3 DUP1 SLOAD PUSH2 0x3E2 SWAP1 PUSH2 0xA13 JUMP JUMPDEST DUP1 ISZERO PUSH2 0x42F JUMPI DUP1 PUSH1 0x1F LT PUSH2 0x404 JUMPI PUSH2 0x100 DUP1 DUP4 SLOAD DIV MUL DUP4 MSTORE SWAP2 PUSH1 0x20 ADD SWAP2 PUSH2 0x42F JUMP JUMPDEST DUP3 ADD SWAP2 SWAP1 PUSH1 0x0 MSTORE PUSH1 0x20 PUSH1 0x0 KECCAK256 SWAP1 JUMPDEST DUP2 SLOAD DUP2 MSTORE SWAP1 PUSH1 0x1 ADD SWAP1 PUSH1 0x20 ADD DUP1 DUP4 GT PUSH2 0x412 JUMPI DUP3 SWAP1 SUB PUSH1 0x1F AND DUP3 ADD SWAP2 JUMPDEST POP POP POP POP POP SWAP1 DUP1 PUSH1 0x3 ADD DUP1 SLOAD PUSH2 0x444 SWAP1 PUSH2 0xA13 JUMP JUMPDEST DUP1 PUSH1 0x1F ADD PUSH1 0x20 DUP1 SWAP2 DIV MUL PUSH1 0x20 ADD PUSH1 0x40 MLOAD SWAP1 DUP2 ADD PUSH1 0x40 MSTORE DUP1 SWAP3 SWAP2 SWAP1 DUP2 DUP2 MSTORE PUSH1 0x20 ADD DUP3 DUP1 SLOAD PUSH2 0x470 SWAP1 PUSH2 0xA13 JUMP JUMPDEST DUP1 ISZERO PUSH2 0x4BD JUMPI DUP1 PUSH1 0x1F LT PUSH2 0x492 JUMPI PUSH2 0x100 DUP1 DUP4 SLOAD DIV MUL DUP4 MSTORE SWAP2 PUSH1 0x20 ADD SWAP2 PUSH2 0x4BD JUMP JUMPDEST DUP3 ADD SWAP2 SWAP1 PUSH1 0x0 MSTORE PUSH1 0x20 PUSH1 0x0 KECCAK256 SWAP1 JUMPDEST DUP2 SLOAD DUP2 MSTORE SWAP1 PUSH1 0x1 ADD SWAP1 PUSH1 0x20 ADD DUP1 DUP4 GT PUSH2 0x4A0 JUMPI DUP3 SWAP1 SUB PUSH1 0x1F AND DUP3 ADD SWAP2 JUMPDEST POP POP POP POP POP SWAP1 DUP1 PUSH1 0x4 ADD SLOAD SWAP1 DUP1 PUSH1 0x5 ADD SLOAD SWAP1 DUP1 PUSH1 0x6 ADD DUP1 SLOAD PUSH2 0x4DE SWAP1 PUSH2 0xA13 JUMP JUMPDEST DUP1 PUSH1 0x1F ADD PUSH1 0x20 DUP1 SWAP2 DIV MUL PUSH1 0x20 ADD PUSH1 0x40 MLOAD SWAP1 DUP2 ADD PUSH1 0x40 MSTORE DUP1 SWAP3 SWAP2 SWAP1 DUP2 DUP2 MSTORE PUSH1 0x20 ADD DUP3 DUP1 SLOAD PUSH2 0x50A SWAP1 PUSH2 0xA13 JUMP JUMPDEST DUP1 ISZERO PUSH2 0x557 JUMPI DUP1 PUSH1 0x1F LT PUSH2 0x52C JUMPI PUSH2 0x100 DUP1 DUP4 SLOAD DIV MUL DUP4 MSTORE SWAP2 PUSH1 0x20 ADD SWAP2 PUSH2 0x557 JUMP JUMPDEST DUP3 ADD SWAP2 SWAP1 PUSH1 0x0 MSTORE PUSH1 0x20 PUSH1 0x0 KECCAK256 SWAP1 JUMPDEST DUP2 SLOAD DUP2 MSTORE SWAP1 PUSH1 0x1 ADD SWAP1 PUSH1 0x20 ADD DUP1 DUP4 GT PUSH2 0x53A JUMPI DUP3 SWAP1 SUB PUSH1 0x1F AND DUP3 ADD SWAP2 JUMPDEST POP POP POP POP POP SWAP1 POP DUP8 JUMP JUMPDEST PUSH1 0x0 DUP1 REVERT JUMPDEST PUSH1 0x0 DUP1 REVERT JUMPDEST PUSH1 0x0 DUP2 SWAP1 POP SWAP2 SWAP1 POP JUMP JUMPDEST PUSH2 0x57E DUP2 PUSH2 0x56B JUMP JUMPDEST DUP2 EQ PUSH2 0x589 JUMPI PUSH1 0x0 DUP1 REVERT JUMPDEST POP JUMP JUMPDEST PUSH1 0x0 DUP2 CALLDATALOAD SWAP1 POP PUSH2 0x59B DUP2 PUSH2 0x575 JUMP JUMPDEST SWAP3 SWAP2 POP POP JUMP JUMPDEST PUSH1 0x0 DUP1 REVERT JUMPDEST PUSH1 0x0 DUP1 REVERT JUMPDEST PUSH1 0x0 DUP1 REVERT JUMPDEST PUSH1 0x0 DUP1 DUP4 PUSH1 0x1F DUP5 ADD SLT PUSH2 0x5C6 JUMPI PUSH2 0x5C5 PUSH2 0x5A1 JUMP JUMPDEST JUMPDEST DUP3 CALLDATALOAD SWAP1 POP PUSH8 0xFFFFFFFFFFFFFFFF DUP2 GT ISZERO PUSH2 0x5E3 JUMPI PUSH2 0x5E2 PUSH2 0x5A6 JUMP JUMPDEST JUMPDEST PUSH1 0x20 DUP4 ADD SWAP2 POP DUP4 PUSH1 0x1 DUP3 MUL DUP4 ADD GT ISZERO PUSH2 0x5FF JUMPI PUSH2 0x5FE PUSH2 0x5AB JUMP JUMPDEST JUMPDEST SWAP3 POP SWAP3 SWAP1 POP JUMP JUMPDEST PUSH1 0x0 DUP1 PUSH1 0x0 DUP1 PUSH1 0x0 DUP1 PUSH1 0x0 DUP1 PUSH1 0x0 DUP1 PUSH1 0x0 PUSH1 0xE0 DUP13 DUP15 SUB SLT ISZERO PUSH2 0x62B JUMPI PUSH2 0x62A PUSH2 0x561 JUMP JUMPDEST JUMPDEST PUSH1 0x0 PUSH2 0x639 DUP15 DUP3 DUP16 ADD PUSH2 0x58C JUMP JUMPDEST SWAP12 POP POP PUSH1 0x20 DUP13 ADD CALLDATALOAD PUSH8 0xFFFFFFFFFFFFFFFF DUP2 GT ISZERO PUSH2 0x65A JUMPI PUSH2 0x659 PUSH2 0x566 JUMP JUMPDEST JUMPDEST PUSH2 0x666 DUP15 DUP3 DUP16 ADD PUSH2 0x5B0 JUMP JUMPDEST SWAP11 POP SWAP11 POP POP PUSH1 0x40 DUP13 ADD CALLDATALOAD PUSH8 0xFFFFFFFFFFFFFFFF DUP2 GT ISZERO PUSH2 0x689 JUMPI PUSH2 0x688 PUSH2 0x566 JUMP JUMPDEST JUMPDEST PUSH2 0x695 DUP15 DUP3 DUP16 ADD PUSH2 0x5B0 JUMP JUMPDEST SWAP9 POP SWAP9 POP POP PUSH1 0x60 DUP13 ADD CALLDATALOAD PUSH8 0xFFFFFFFFFFFFFFFF DUP2 GT ISZERO PUSH2 0x6B8 JUMPI PUSH2 0x6B7 PUSH2 0x566 JUMP JUMPDEST JUMPDEST PUSH2 0x6C4 DUP15 DUP3 DUP16 ADD PUSH2 0x5B0 JUMP JUMPDEST SWAP7 POP SWAP7 POP POP PUSH1 0x80 PUSH2 0x6D7 DUP15 DUP3 DUP16 ADD PUSH2 0x58C JUMP JUMPDEST SWAP5 POP POP PUSH1 0xA0 PUSH2 0x6E8 DUP15 DUP3 DUP16 ADD PUSH2 0x58C JUMP JUMPDEST SWAP4 POP POP PUSH1 0xC0 DUP13 ADD CALLDATALOAD PUSH8 0xFFFFFFFFFFFFFFFF DUP2 GT ISZERO PUSH2 0x709 JUMPI PUSH2 0x708 PUSH2 0x566 JUMP JUMPDEST JUMPDEST PUSH2 0x715 DUP15 DUP3 DUP16 ADD PUSH2 0x5B0 JUMP JUMPDEST SWAP3 POP SWAP3 POP POP SWAP3 SWAP6 SWAP9 SWAP12 POP SWAP3 SWAP6 SWAP9 SWAP12 SWAP1 SWAP4 SWAP7 SWAP10 POP JUMP JUMPDEST PUSH1 0x0 DUP2 SWAP1 POP SWAP2 SWAP1 POP JUMP JUMPDEST PUSH2 0x73D DUP2 PUSH2 0x72A JUMP JUMPDEST DUP3 MSTORE POP POP JUMP JUMPDEST PUSH1 0x0 PUSH1 0x20 DUP3 ADD SWAP1 POP PUSH2 0x758 PUSH1 0x0 DUP4 ADD DUP5 PUSH2 0x734 JUMP JUMPDEST SWAP3 SWAP2 POP POP JUMP JUMPDEST PUSH2 0x767 DUP2 PUSH2 0x72A JUMP JUMPDEST DUP2 EQ PUSH2 0x772 JUMPI PUSH1 0x0 DUP1 REVERT JUMPDEST POP JUMP JUMPDEST PUSH1 0x0 DUP2 CALLDATALOAD SWAP1 POP PUSH2 0x784 DUP2 PUSH2 0x75E JUMP JUMPDEST SWAP3 SWAP2 POP POP JUMP JUMPDEST PUSH1 0x0 PUSH1 0x20 DUP3 DUP5 SUB SLT ISZERO PUSH2 0x7A0 JUMPI PUSH2 0x79F PUSH2 0x561 JUMP JUMPDEST JUMPDEST PUSH1 0x0 PUSH2 0x7AE DUP5 DUP3 DUP6 ADD PUSH2 0x775 JUMP JUMPDEST SWAP2 POP POP SWAP3 SWAP2 POP POP JUMP JUMPDEST PUSH2 0x7C0 DUP2 PUSH2 0x56B JUMP JUMPDEST DUP3 MSTORE POP POP JUMP JUMPDEST PUSH1 0x0 DUP2 MLOAD SWAP1 POP SWAP2 SWAP1 POP JUMP JUMPDEST PUSH1 0x0 DUP3 DUP3 MSTORE PUSH1 0x20 DUP3 ADD SWAP1 POP SWAP3 SWAP2 POP POP JUMP JUMPDEST PUSH1 0x0 JUMPDEST DUP4 DUP2 LT ISZERO PUSH2 0x800 JUMPI DUP1 DUP3 ADD MLOAD DUP2 DUP5 ADD MSTORE PUSH1 0x20 DUP2 ADD SWAP1 POP PUSH2 0x7E5 JUMP JUMPDEST PUSH1 0x0 DUP5 DUP5 ADD MSTORE POP POP POP POP JUMP JUMPDEST PUSH1 0x0 PUSH1 0x1F NOT PUSH1 0x1F DUP4 ADD AND SWAP1 POP SWAP2 SWAP1 POP JUMP JUMPDEST PUSH1 0x0 PUSH2 0x828 DUP3 PUSH2 0x7C6 JUMP JUMPDEST PUSH2 0x832 DUP2 DUP6 PUSH2 0x7D1 JUMP JUMPDEST SWAP4 POP PUSH2 0x842 DUP2 DUP6 PUSH1 0x20 DUP7 ADD PUSH2 0x7E2 JUMP JUMPDEST PUSH2 0x84B DUP2 PUSH2 0x80C JUMP JUMPDEST DUP5 ADD SWAP2 POP POP SWAP3 SWAP2 POP POP JUMP JUMPDEST PUSH1 0x0 PUSH1 0xE0 DUP3 ADD SWAP1 POP PUSH2 0x86B PUSH1 0x0 DUP4 ADD DUP11 PUSH2 0x7B7 JUMP JUMPDEST DUP2 DUP2 SUB PUSH1 0x20 DUP4 ADD MSTORE PUSH2 0x87D DUP2 DUP10 PUSH2 0x81D JUMP JUMPDEST SWAP1 POP DUP2 DUP2 SUB PUSH1 0x40 DUP4 ADD MSTORE PUSH2 0x891 DUP2 DUP9 PUSH2 0x81D JUMP JUMPDEST SWAP1 POP DUP2 DUP2 SUB PUSH1 0x60 DUP4 ADD MSTORE PUSH2 0x8A5 DUP2 DUP8 PUSH2 0x81D JUMP JUMPDEST SWAP1 POP PUSH2 0x8B4 PUSH1 0x80 DUP4 ADD DUP7 PUSH2 0x7B7 JUMP JUMPDEST PUSH2 0x8C1 PUSH1 0xA0 DUP4 ADD DUP6 PUSH2 0x7B7 JUMP JUMPDEST DUP2 DUP2 SUB PUSH1 0xC0 DUP4 ADD MSTORE PUSH2 0x8D3 DUP2 DUP5 PUSH2 0x81D JUMP JUMPDEST SWAP1 POP SWAP9 SWAP8 POP POP POP POP POP POP POP POP JUMP JUMPDEST DUP3 DUP2 DUP4 CALLDATACOPY PUSH1 0x0 DUP4 DUP4 ADD MSTORE POP POP POP JUMP JUMPDEST PUSH1 0x0 PUSH2 0x8FC DUP4 DUP6 PUSH2 0x7D1 JUMP JUMPDEST SWAP4 POP PUSH2 0x909 DUP4 DUP6 DUP5 PUSH2 0x8E1 JUMP JUMPDEST PUSH2 0x912 DUP4 PUSH2 0x80C JUMP JUMPDEST DUP5 ADD SWAP1 POP SWAP4 SWAP3 POP POP POP JUMP JUMPDEST PUSH1 0x0 PUSH20 0xFFFFFFFFFFFFFFFFFFFFFFFFFFFFFFFFFFFFFFFF DUP3 AND SWAP1 POP SWAP2 SWAP1 POP JUMP JUMPDEST PUSH1 0x0 PUSH2 0x948 DUP3 PUSH2 0x91D JUMP JUMPDEST SWAP1 POP SWAP2 SWAP1 POP JUMP JUMPDEST PUSH2 0x958 DUP2 PUSH2 0x93D JUMP JUMPDEST DUP3 MSTORE POP POP JUMP JUMPDEST PUSH1 0x0 PUSH1 0x80 DUP3 ADD SWAP1 POP PUSH2 0x973 PUSH1 0x0 DUP4 ADD DUP10 PUSH2 0x7B7 JUMP JUMPDEST DUP2 DUP2 SUB PUSH1 0x20 DUP4 ADD MSTORE PUSH2 0x986 DUP2 DUP8 DUP10 PUSH2 0x8F0 JUMP JUMPDEST SWAP1 POP DUP2 DUP2 SUB PUSH1 0x40 DUP4 ADD MSTORE PUSH2 0x99B DUP2 DUP6 DUP8 PUSH2 0x8F0 JUMP JUMPDEST SWAP1 POP PUSH2 0x9AA PUSH1 0x60 DUP4 ADD DUP5 PUSH2 0x94F JUMP JUMPDEST SWAP8 SWAP7 POP POP POP POP POP POP POP JUMP JUMPDEST PUSH32 0x4E487B7100000000000000000000000000000000000000000000000000000000 PUSH1 0x0 MSTORE PUSH1 0x41 PUSH1 0x4 MSTORE PUSH1 0x24 PUSH1 0x0 REVERT JUMPDEST PUSH32 0x4E487B7100000000000000000000000000000000000000000000000000000000 PUSH1 0x0 MSTORE PUSH1 0x22 PUSH1 0x4 MSTORE PUSH1 0x24 PUSH1 0x0 REVERT JUMPDEST PUSH1 0x0 PUSH1 0x2 DUP3 DIV SWAP1 POP PUSH1 0x1 DUP3 AND DUP1 PUSH2 0xA2B JUMPI PUSH1 0x7F DUP3 AND SWAP2 POP JUMPDEST PUSH1 0x20 DUP3 LT DUP2 SUB PUSH2 0xA3E JUMPI PUSH2 0xA3D PUSH2 0x9E4 JUMP JUMPDEST JUMPDEST POP SWAP2 SWAP1 POP JUMP JUMPDEST PUSH1 0x0 DUP2 SWAP1 POP DUP2 PUSH1 0x0 MSTORE PUSH1 0x20 PUSH1 0x0 KECCAK256 SWAP1 POP SWAP2 SWAP1 POP JUMP JUMPDEST PUSH1 0x0 PUSH1 0x20 PUSH1 0x1F DUP4 ADD DIV SWAP1 POP SWAP2 SWAP1 POP JUMP JUMPDEST PUSH1 0x0 DUP3 DUP3 SHL SWAP1 POP SWAP3 SWAP2 POP POP JUMP JUMPDEST PUSH1 0x0 PUSH1 0x8 DUP4 MUL PUSH2 0xAA6 PUSH32 0xFFFFFFFFFFFFFFFFFFFFFFFFFFFFFFFFFFFFFFFFFFFFFFFFFFFFFFFFFFFFFFFF DUP3 PUSH2 0xA69 JUMP JUMPDEST PUSH2 0xAB0 DUP7 DUP4 PUSH2 0xA69 JUMP JUMPDEST SWAP6 POP DUP1 NOT DUP5 AND SWAP4 POP DUP1 DUP7 AND DUP5 OR SWAP3 POP POP POP SWAP4 SWAP3 POP POP POP JUMP JUMPDEST PUSH1 0x0 DUP2 SWAP1 POP SWAP2 SWAP1 POP JUMP JUMPDEST PUSH1 0x0 PUSH2 0xAED PUSH2 0xAE8 PUSH2 0xAE3 DUP5 PUSH2 0x56B JUMP JUMPDEST PUSH2 0xAC8 JUMP JUMPDEST PUSH2 0x56B JUMP JUMPDEST SWAP1 POP SWAP2 SWAP1 POP JUMP JUMPDEST PUSH1 0x0 DUP2 SWAP1 POP SWAP2 SWAP1 POP JUMP JUMPDEST PUSH2 0xB07 DUP4 PUSH2 0xAD2 JUMP JUMPDEST PUSH2 0xB1B PUSH2 0xB13 DUP3 PUSH2 0xAF4 JUMP JUMPDEST DUP5 DUP5 SLOAD PUSH2 0xA76 JUMP JUMPDEST DUP3 SSTORE POP POP POP POP JUMP JUMPDEST PUSH1 0x0 SWAP1 JUMP JUMPDEST PUSH2 0xB30 PUSH2 0xB23 JUMP JUMPDEST PUSH2 0xB3B DUP2 DUP5 DUP5 PUSH2 0xAFE JUMP JUMPDEST POP POP POP JUMP JUMPDEST JUMPDEST DUP2 DUP2 LT ISZERO PUSH2 0xB5F JUMPI PUSH2 0xB54 PUSH1 0x0 DUP3 PUSH2 0xB28 JUMP JUMPDEST PUSH1 0x1 DUP2 ADD SWAP1 POP PUSH2 0xB41 JUMP JUMPDEST POP POP JUMP JUMPDEST PUSH1 0x1F DUP3 GT ISZERO PUSH2 0xBA4 JUMPI PUSH2 0xB75 DUP2 PUSH2 0xA44 JUMP JUMPDEST PUSH2 0xB7E DUP5 PUSH2 0xA59 JUMP JUMPDEST DUP2 ADD PUSH1 0x20 DUP6 LT ISZERO PUSH2 0xB8D JUMPI DUP2 SWAP1 POP JUMPDEST PUSH2 0xBA1 PUSH2 0xB99 DUP6 PUSH2 0xA59 JUMP JUMPDEST DUP4 ADD DUP3 PUSH2 0xB40 JUMP JUMPDEST POP POP JUMPDEST POP POP POP JUMP JUMPDEST PUSH1 0x0 DUP3 DUP3 SHR SWAP1 POP SWAP3 SWAP2 POP POP JUMP JUMPDEST PUSH1 0x0 PUSH2 0xBC7 PUSH1 0x0 NOT DUP5 PUSH1 0x8 MUL PUSH2 0xBA9 JUMP JUMPDEST NOT DUP1 DUP4 AND SWAP2 POP POP SWAP3 SWAP2 POP POP JUMP JUMPDEST PUSH1 0x0 PUSH2 0xBE0 DUP4 DUP4 PUSH2 0xBB6 JUMP JUMPDEST SWAP2 POP DUP3 PUSH1 0x2 MUL DUP3 OR SWAP1 POP SWAP3 SWAP2 POP POP JUMP JUMPDEST PUSH2 0xBF9 DUP3 PUSH2 0x7C6 JUMP JUMPDEST PUSH8 0xFFFFFFFFFFFFFFFF DUP2 GT ISZERO PUSH2 0xC12 JUMPI PUSH2 0xC11 PUSH2 0x9B5 JUMP JUMPDEST JUMPDEST PUSH2 0xC1C DUP3 SLOAD PUSH2 0xA13 JUMP JUMPDEST PUSH2 0xC27 DUP3 DUP3 DUP6 PUSH2 0xB63 JUMP JUMPDEST PUSH1 0x0 PUSH1 0x20 SWAP1 POP PUSH1 0x1F DUP4 GT PUSH1 0x1 DUP2 EQ PUSH2 0xC5A JUMPI PUSH1 0x0 DUP5 ISZERO PUSH2 0xC48 JUMPI DUP3 DUP8 ADD MLOAD SWAP1 POP JUMPDEST PUSH2 0xC52 DUP6 DUP3 PUSH2 0xBD4 JUMP JUMPDEST DUP7 SSTORE POP PUSH2 0xCBA JUMP JUMPDEST PUSH1 0x1F NOT DUP5 AND PUSH2 0xC68 DUP7 PUSH2 0xA44 JUMP JUMPDEST PUSH1 0x0 JUMPDEST DUP3 DUP2 LT ISZERO PUSH2 0xC90 JUMPI DUP5 DUP10 ADD MLOAD DUP3 SSTORE PUSH1 0x1 DUP3 ADD SWAP2 POP PUSH1 0x20 DUP6 ADD SWAP5 POP PUSH1 0x20 DUP2 ADD SWAP1 POP PUSH2 0xC6B JUMP JUMPDEST DUP7 DUP4 LT ISZERO PUSH2 0xCAD JUMPI DUP5 DUP10 ADD MLOAD PUSH2 0xCA9 PUSH1 0x1F DUP10 AND DUP3 PUSH2 0xBB6 JUMP JUMPDEST DUP4 SSTORE POP JUMPDEST PUSH1 0x1 PUSH1 0x2 DUP9 MUL ADD DUP9 SSTORE POP POP POP JUMPDEST POP POP POP POP POP POP JUMP JUMPDEST PUSH1 0x0 PUSH1 0xE0 DUP3 ADD SWAP1 POP PUSH2 0xCD7 PUSH1 0x0 DUP4 ADD DUP15 PUSH2 0x7B7 JUMP JUMPDEST DUP2 DUP2 SUB PUSH1 0x20 DUP4 ADD MSTORE PUSH2 0xCEA DUP2 DUP13 DUP15 PUSH2 0x8F0 JUMP JUMPDEST SWAP1 POP DUP2 DUP2 SUB PUSH1 0x40 DUP4 ADD MSTORE PUSH2 0xCFF DUP2 DUP11 DUP13 PUSH2 0x8F0 JUMP JUMPDEST SWAP1 POP DUP2 DUP2 SUB PUSH1 0x60 DUP4 ADD MSTORE PUSH2 0xD14 DUP2 DUP9 DUP11 PUSH2 0x8F0 JUMP JUMPDEST SWAP1 POP PUSH2 0xD23 PUSH1 0x80 DUP4 ADD DUP8 PUSH2 0x7B7 JUMP JUMPDEST PUSH2 0xD30 PUSH1 0xA0 DUP4 ADD DUP7 PUSH2 0x7B7 JUMP JUMPDEST DUP2 DUP2 SUB PUSH1 0xC0 DUP4 ADD MSTORE PUSH2 0xD43 DUP2 DUP5 DUP7 PUSH2 0x8F0 JUMP JUMPDEST SWAP1 POP SWAP13 SWAP12 POP POP POP POP POP POP POP POP POP POP POP POP JUMP INVALID LOG2 PUSH5 0x6970667358 0x22 SLT KECCAK256 0xAE 0x4F 0x29 0xE0 0x2A REVERT 0xD9 0x29 PUSH23 0x4A8E12A3D33A401D7FCEFD836FCA513B71F2A04B5E708D PUSH5 0x736F6C6343 STOP ADDMOD SHR STOP CALLER "},"methodIdentifiers":{"logDecision(uint256,string,string,string,uint256,uint256,string)":"74a449a1","memos(bytes32)":"93c56f2a"}}}}}