{
  "_format": "hh-sol-artifact-1",
  "contractName": "DecisionLogger",
  "sourceName": "contracts/DecisionLogger.sol",
  "abi": [
    {
      "inputs": [],
      "stateMutability": "nonpayable",
      "type": "constructor"
    },
    {
      "anonymous": false,
      "inputs": [
        {
          "indexed": true,
          "internalType": "bytes32",
          "name": "id",
          "type": "bytes32"
        },
        {
          "indexed": false,
          "internalType": "uint256",
          "name": "ts",
          "type": "uint256"
        },
        {
          "indexed": false,
          "internalType": "string",
          "name": "agent",
          "type": "string"
        },
        {
          "indexed": false,
          "internalType": "string",
          "name": "role",
          "type": "string"
        },
        {
          "indexed": false,
          "internalType": "string",
          "name": "action",
          "type": "string"
        },
        {
          "indexed": false,
          "internalType": "uint256",
          "name": "slca_milli",
          "type": "uint256"
        },
        {
          "indexed": false,
          "internalType": "uint256",
          "name": "carbon_milli",
          "type": "uint256"
        },
        {
          "indexed": false,
          "internalType": "string",
          "name": "note",
          "type": "string"
        }
      ],
      "name": "DecisionLogged",
      "type": "event"
    },
    {
      "inputs": [
        {
          "internalType": "address",
          "name": "",
          "type": "address"
        }
      ],
      "name": "authorized",
      "outputs": [
        {
          "internalType": "bool",
          "name": "",
          "type": "bool"
        }
      ],
      "stateMutability": "view",
      "type": "function"
    },
    {
      "inputs": [
        {
          "internalType": "uint256",
          "name": "ts",
          "type": "uint256"
        },
        {
          "internalType": "string",
          "name": "agent",
          "type": "string"
        },
        {
          "internalType": "string",
          "name": "role",
          "type": "string"
        },
        {
          "internalType": "string",
          "name": "action",
          "type": "string"
        },
        {
          "internalType": "uint256",
          "name": "slca_milli",
          "type": "uint256"
        },
        {
          "internalType": "uint256",
          "name": "carbon_milli",
          "type": "uint256"
        },
        {
          "internalType": "string",
          "name": "note",
          "type": "string"
        }
      ],
      "name": "logDecision",
      "outputs": [
        {
          "internalType": "bytes32",
          "name": "id",
          "type": "bytes32"
        }
      ],
      "stateMutability": "nonpayable",
      "type": "function"
    },
    {
      "inputs": [
        {
          "internalType": "bytes32",
          "name": "",
          "type": "bytes32"
        }
      ],
      "name": "memos",
      "outputs": [
        {
          "internalType": "uint256",
          "name": "ts",
          "type": "uint256"
        },
        {
          "internalType": "string",
          "name": "agent",
          "type": "string"
        },
        {
          "internalType": "string",
          "name": "role",
          "type": "string"
        },
        {
          "internalType": "string",
          "name": "action",
          "type": "string"
        },
        {
          "internalType": "uint256",
          "name": "slca_milli",
          "type": "uint256"
        },
        {
          "internalType": "uint256",
          "name": "carbon_milli",
          "type": "uint256"
        },
        {
          "internalType": "string",
          "name": "note",
          "type": "string"
        }
      ],
      "stateMutability": "view",
      "type": "function"
    },
    {
      "inputs": [],
      "name": "owner",
      "outputs": [
        {
          "internalType": "address",
          "name": "",
          "type": "address"
        }
      ],
      "stateMutability": "view",
      "type": "function"
    },
    {
      "inputs": [
        {
          "internalType": "address",
          "name": "who",
          "type": "address"
        },
        {
          "internalType": "bool",
          "name": "allowed",
          "type": "bool"
        }
      ],
      "name": "setAuthorized",
      "outputs": [],
      "stateMutability": "nonpayable",
      "type": "function"
    }
  ],
  "bytecode": "0x6080604052348015600f57600080fd5b50336000806101000a81548173ffffffffffffffffffffffffffffffffffffffff021916908373ffffffffffffffffffffffffffffffffffffffff16021790555060018060003373ffffffffffffffffffffffffffffffffffffffff1673ffffffffffffffffffffffffffffffffffffffff16815260200190815260200160002060006101000a81548160ff0219169083151502179055506111be806100b66000396000f3fe608060405234801561001057600080fd5b50600436106100575760003560e01c8063711bf9b21461005c57806374a449a1146100785780638da5cb5b146100a857806393c56f2a146100c6578063b9181611146100fc575b600080fd5b61007660048036038101906100719190610846565b61012c565b005b610092600480360381019061008d9190610921565b610215565b60405161009f9190610a5e565b60405180910390f35b6100b0610500565b6040516100bd9190610a88565b60405180910390f35b6100e060048036038101906100db9190610acf565b610524565b6040516100f39796959493929190610b9b565b60405180910390f35b61011660048036038101906101119190610c26565b610786565b6040516101239190610c62565b60405180910390f35b60008054906101000a900473ffffffffffffffffffffffffffffffffffffffff1673ffffffffffffffffffffffffffffffffffffffff163373ffffffffffffffffffffffffffffffffffffffff16146101ba576040517f08c379a00000000000000000000000000000000000000000000000000000000081526004016101b190610cc9565b60405180910390fd5b80600160008473ffffffffffffffffffffffffffffffffffffffff1673ffffffffffffffffffffffffffffffffffffffff16815260200190815260200160002060006101000a81548160ff0219169083151502179055505050565b6000600160003373ffffffffffffffffffffffffffffffffffffffff1673ffffffffffffffffffffffffffffffffffffffff16815260200190815260200160002060009054906101000a900460ff166102a3576040517f08c379a000000000000000000000000000000000000000000000000000000000815260040161029a90610d35565b60405180910390fd5b8b8b8b8989336040516020016102be96959493929190610d91565b6040516020818303038152906040528051906020012090506040518060e001604052808d81526020018c8c8080601f016020809104026020016040519081016040528093929190818152602001838380828437600081840152601f19601f8201169050808301925050505050505081526020018a8a8080601f016020809104026020016040519081016040528093929190818152602001838380828437600081840152601f19601f82011690508083019250505050505050815260200188888080601f016020809104026020016040519081016040528093929190818152602001838380828437600081840152601f19601f82011690508083019250505050505050815260200186815260200185815260200184848080601f016020809104026020016040519081016040528093929190818152602001838380828437600081840152601f19601f820116905080830192505050505050508152506002600083815260200190815260200160002060008201518160000155602082015181600101908161044b9190611023565b5060408201518160020190816104619190611023565b5060608201518160030190816104779190611023565b506080820151816004015560a0820151816005015560c08201518160060190816104a19190611023565b50905050807f7af378071a0805301f6712c6e435478cc1e7d3c8cef815e78849fb7c548a7ed08d8d8d8d8d8d8d8d8d8d8d6040516104e99b9a999897969594939291906110f5565b60405180910390a29b9a5050505050505050505050565b60008054906101000a900473ffffffffffffffffffffffffffffffffffffffff1681565b600260205280600052604060002060009150905080600001549080600101805461054d90610e46565b80601f016020809104026020016040519081016040528092919081815260200182805461057990610e46565b80156105c65780601f1061059b576101008083540402835291602001916105c6565b820191906000526020600020905b8154815290600101906020018083116105a957829003601f168201915b5050505050908060020180546105db90610e46565b80601f016020809104026020016040519081016040528092919081815260200182805461060790610e46565b80156106545780601f1061062957610100808354040283529160200191610654565b820191906000526020600020905b81548152906001019060200180831161063757829003601f168201915b50505050509080600301805461066990610e46565b80601f016020809104026020016040519081016040528092919081815260200182805461069590610e46565b80156106e25780601f106106b7576101008083540402835291602001916106e2565b820191906000526020600020905b8154815290600101906020018083116106c557829003601f168201915b50505050509080600401549080600501549080600601805461070390610e46565b80601f016020809104026020016040519081016040528092919081815260200182805461072f90610e46565b801561077c5780601f106107515761010080835404028352916020019161077c565b820191906000526020600020905b81548152906001019060200180831161075f57829003601f168201915b5050505050905087565b60016020528060005260406000206000915054906101000a900460ff1681565b600080fd5b600080fd5b600073ffffffffffffffffffffffffffffffffffffffff82169050919050565b60006107db826107b0565b9050919050565b6107eb816107d0565b81146107f657600080fd5b50565b600081359050610808816107e2565b92915050565b60008115159050919050565b6108238161080e565b811461082e57600080fd5b50565b6000813590506108408161081a565b92915050565b6000806040838503121561085d5761085c6107a6565b5b600061086b858286016107f9565b925050602061087c85828601610831565b9150509250929050565b6000819050919050565b61089981610886565b81146108a457600080fd5b50565b6000813590506108b681610890565b92915050565b600080fd5b600080fd5b600080fd5b60008083601f8401126108e1576108e06108bc565b5b8235905067ffffffffffffffff8111156108fe576108fd6108c1565b5b60208301915083600182028301111561091a576109196108c6565b5b9250929050565b600080600080600080600080600080600060e08c8e031215610946576109456107a6565b5b60006109548e828f016108a7565b9b505060208c013567ffffffffffffffff811115610975576109746107ab565b5b6109818e828f016108cb565b9a509a505060408c013567ffffffffffffffff8111156109a4576109a36107ab565b5b6109b08e828f016108cb565b985098505060608c013567ffffffffffffffff8111156109d3576109d26107ab565b5b6109df8e828f016108cb565b965096505060806109f28e828f016108a7565b94505060a0610a038e828f016108a7565b93505060c08c013567ffffffffffffffff811115610a2457610a236107ab565b5b610a308e828f016108cb565b92509250509295989b509295989b9093969950565b6000819050919050565b610a5881610a45565b82525050565b6000602082019050610a736000830184610a4f565b92915050565b610a82816107d0565b82525050565b6000602082019050610a9d6000830184610a79565b92915050565b610aac81610a45565b8114610ab757600080fd5b50565b600081359050610ac981610aa3565b92915050565b600060208284031215610ae557610ae46107a6565b5b6000610af384828501610aba565b91505092915050565b610b0581610886565b82525050565b600081519050919050565b600082825260208201905092915050565b60005b83811015610b45578082015181840152602081019050610b2a565b60008484015250505050565b6000601f19601f8301169050919050565b6000610b6d82610b0b565b610b778185610b16565b9350610b87818560208601610b27565b610b9081610b51565b840191505092915050565b600060e082019050610bb0600083018a610afc565b8181036020830152610bc28189610b62565b90508181036040830152610bd68188610b62565b90508181036060830152610bea8187610b62565b9050610bf96080830186610afc565b610c0660a0830185610afc565b81810360c0830152610c188184610b62565b905098975050505050505050565b600060208284031215610c3c57610c3b6107a6565b5b6000610c4a848285016107f9565b91505092915050565b610c5c8161080e565b82525050565b6000602082019050610c776000830184610c53565b92915050565b7f6e6f74206f776e65720000000000000000000000000000000000000000000000600082015250565b6000610cb3600983610b16565b9150610cbe82610c7d565b602082019050919050565b60006020820190508181036000830152610ce281610ca6565b9050919050565b7f6e6f7420617574686f72697a6564000000000000000000000000000000000000600082015250565b6000610d1f600e83610b16565b9150610d2a82610ce9565b602082019050919050565b60006020820190508181036000830152610d4e81610d12565b9050919050565b82818337600083830152505050565b6000610d708385610b16565b9350610d7d838584610d55565b610d8683610b51565b840190509392505050565b6000608082019050610da66000830189610afc565b8181036020830152610db9818789610d64565b90508181036040830152610dce818587610d64565b9050610ddd6060830184610a79565b979650505050505050565b7f4e487b7100000000000000000000000000000000000000000000000000000000600052604160045260246000fd5b7f4e487b7100000000000000000000000000000000000000000000000000000000600052602260045260246000fd5b60006002820490506001821680610e5e57607f821691505b602082108103610e7157610e70610e17565b5b50919050565b60008190508160005260206000209050919050565b60006020601f8301049050919050565b600082821b905092915050565b600060088302610ed97fffffffffffffffffffffffffffffffffffffffffffffffffffffffffffffffff82610e9c565b610ee38683610e9c565b95508019841693508086168417925050509392505050565b6000819050919050565b6000610f20610f1b610f1684610886565b610efb565b610886565b9050919050565b6000819050919050565b610f3a83610f05565b610f4e610f4682610f27565b848454610ea9565b825550505050565b600090565b610f63610f56565b610f6e818484610f31565b505050565b5b81811015610f9257610f87600082610f5b565b600181019050610f74565b5050565b601f821115610fd757610fa881610e77565b610fb184610e8c565b81016020851015610fc0578190505b610fd4610fcc85610e8c565b830182610f73565b50505b505050565b600082821c905092915050565b6000610ffa60001984600802610fdc565b1980831691505092915050565b60006110138383610fe9565b9150826002028217905092915050565b61102c82610b0b565b67ffffffffffffffff81111561104557611044610de8565b5b61104f8254610e46565b61105a828285610f96565b600060209050601f83116001811461108d576000841561107b578287015190505b6110858582611007565b8655506110ed565b601f19841661109b86610e77565b60005b828110156110c35784890151825560018201915060208501945060208101905061109e565b868310156110e057848901516110dc601f891682610fe9565b8355505b6001600288020188555050505b505050505050565b600060e08201905061110a600083018e610afc565b818103602083015261111d818c8e610d64565b90508181036040830152611132818a8c610d64565b9050818103606083015261114781888a610d64565b90506111566080830187610afc565b61116360a0830186610afc565b81810360c0830152611176818486610d64565b90509c9b50505050505050505050505056fea2646970667358221220077b0146bbb3b1d26236fa061f32945be4df4b782d4fce7c953c731d7ae20fa064736f6c634300081c0033",
  "linkReferences": {},
  "deployedLinkReferences": {}
}