{
  "_format": "hh-sol-artifact-1",
  "contractName": "PolicyStore",
  "sourceName": "contracts/PolicyStore.sol",
  "abi": [
    {
      "inputs": [],
      "stateMutability": "nonpayable",
      "type": "constructor"
    },
    {
      "anonymous": false,
      "inputs": [
        {
          "indexed": true,
          "internalType": "bytes32",
          "name": "key",
          "type": "bytes32"
        },
        {
          "indexed": false,
          "internalType": "uint256",
          "name": "oldValue",
          "type": "uint256"
        },
        {
          "indexed": false,
          "internalType": "uint256",
          "name": "newValue",
          "type": "uint256"
        }
      ],
      "name": "PolicyChanged",
      "type": "event"
    },
    {
      "inputs": [],
      "name": "authorizedDAO",
      "outputs": [
        {
          "internalType": "address",
          "name": "",
          "type": "address"
        }
      ],
      "stateMutability": "view",
      "type": "function"
    },
    {
      "inputs": [
        {
          "internalType": "bytes32",
          "name": "key",
          "type": "bytes32"
        }
      ],
      "name": "getPolicy",
      "outputs": [
        {
          "internalType": "uint256",
          "name": "",
          "type": "uint256"
        }
      ],
      "stateMutability": "view",
      "type": "function"
    },
    {
      "inputs": [],
      "name": "owner",
      "outputs": [
        {
          "internalType": "address",
          "name": "",
          "type": "address"
        }
      ],
      "stateMutability": "view",
      "type": "function"
    },
    {
      "inputs": [
        {
          "internalType": "bytes32",
          "name": "",
          "type": "bytes32"
        }
      ],
      "name": "policy",
      "outputs": [
        {
          "internalType": "uint256",
          "name": "",
          "type": "uint256"
        }
      ],
      "stateMutability": "view",
      "type": "function"
    },
    {
      "inputs": [
        {
          "internalType": "address",
          "name": "dao",
          "type": "address"
        }
      ],
      "name": "setAuthorizedDAO",
      "outputs": [],
      "stateMutability": "nonpayable",
      "type": "function"
    },
    {
      "inputs": [
        {
          "internalType": "bytes32",
          "name": "key",
          "type": "bytes32"
        },
        {
          "internalType": "uint256",
          "name": "value",
          "type": "uint256"
        }
      ],
      "name": "setPolicy",
      "outputs": [],
      "stateMutability": "nonpayable",
      "type": "function"
    }
  ],
  "bytecode": "0x6080604052348015600f57600080fd5b50336000806101000a81548173ffffffffffffffffffffffffffffffffffffffff021916908373ffffffffffffffffffffffffffffffffffffffff1602179055506106e68061005f6000396000f3fe608060405234801561001057600080fd5b50600436106100625760003560e01c8063115f746c146100675780638da5cb5b14610097578063a3f685f9146100b5578063a7d02f5e146100e5578063a91ee94914610101578063fac45f6f1461011f575b600080fd5b610081600480360381019061007c919061041c565b61013b565b60405161008e9190610462565b60405180910390f35b61009f610153565b6040516100ac91906104be565b60405180910390f35b6100cf60048036038101906100ca919061041c565b610177565b6040516100dc9190610462565b60405180910390f35b6100ff60048036038101906100fa9190610505565b610194565b005b610109610266565b60405161011691906104be565b60405180910390f35b6101396004803603810190610134919061055e565b61028c565b005b60026020528060005260406000206000915090505481565b60008054906101000a900473ffffffffffffffffffffffffffffffffffffffff1681565b600060026000838152602001908152602001600020549050919050565b60008054906101000a900473ffffffffffffffffffffffffffffffffffffffff1673ffffffffffffffffffffffffffffffffffffffff163373ffffffffffffffffffffffffffffffffffffffff1614610222576040517f08c379a0000000000000000000000000000000000000000000000000000000008152600401610219906105fb565b60405180910390fd5b80600160006101000a81548173ffffffffffffffffffffffffffffffffffffffff021916908373ffffffffffffffffffffffffffffffffffffffff16021790555050565b600160009054906101000a900473ffffffffffffffffffffffffffffffffffffffff1681565b60008054906101000a900473ffffffffffffffffffffffffffffffffffffffff1673ffffffffffffffffffffffffffffffffffffffff163373ffffffffffffffffffffffffffffffffffffffff1614806103335750600160009054906101000a900473ffffffffffffffffffffffffffffffffffffffff1673ffffffffffffffffffffffffffffffffffffffff163373ffffffffffffffffffffffffffffffffffffffff16145b610372576040517f08c379a000000000000000000000000000000000000000000000000000000000815260040161036990610667565b60405180910390fd5b600060026000848152602001908152602001600020549050816002600085815260200190815260200160002081905550827f6420b4a3383ff43c2ca0098b922a88845c64421472147a8a2e1ca776a6124f6b82846040516103d4929190610687565b60405180910390a2505050565b600080fd5b6000819050919050565b6103f9816103e6565b811461040457600080fd5b50565b600081359050610416816103f0565b92915050565b600060208284031215610432576104316103e1565b5b600061044084828501610407565b91505092915050565b6000819050919050565b61045c81610449565b82525050565b60006020820190506104776000830184610453565b92915050565b600073ffffffffffffffffffffffffffffffffffffffff82169050919050565b60006104a88261047d565b9050919050565b6104b88161049d565b82525050565b60006020820190506104d360008301846104af565b92915050565b6104e28161049d565b81146104ed57600080fd5b50565b6000813590506104ff816104d9565b92915050565b60006020828403121561051b5761051a6103e1565b5b6000610529848285016104f0565b91505092915050565b61053b81610449565b811461054657600080fd5b50565b60008135905061055881610532565b92915050565b60008060408385031215610575576105746103e1565b5b600061058385828601610407565b925050602061059485828601610549565b9150509250929050565b600082825260208201905092915050565b7f6e6f74206f776e65720000000000000000000000000000000000000000000000600082015250565b60006105e560098361059e565b91506105f0826105af565b602082019050919050565b60006020820190508181036000830152610614816105d8565b9050919050565b7f6e6f7420617574686f72697a6564000000000000000000000000000000000000600082015250565b6000610651600e8361059e565b915061065c8261061b565b602082019050919050565b6000602082019050818103600083015261068081610644565b9050919050565b600060408201905061069c6000830185610453565b6106a96020830184610453565b939250505056fea26469706673582212206bb5ad09332e2992895917261e493f8dc95ca7342d3e4007f85d01a3f77d59d964736f6c634300081c0033",
  "linkReferences": {},
  "deployedLinkReferences": {}
}