{
  "_format": "hh-sol-artifact-1",
  "contractName": "SLCARewards",
  "sourceName": "contracts/SLCARewards.sol",
  "abi": [
    {
      "inputs": [],
      "stateMutability": "nonpayable",
      "type": "constructor"
    },
    {
      "anonymous": false,
      "inputs": [
        {
          "indexed": true,
          "internalType": "address",
          "name": "to",
          "type": "address"
        },
        {
          "indexed": false,
          "internalType": "uint256",
          "name": "amount",
          "type": "uint256"
        }
      ],
      "name": "Rewarded",
      "type": "event"
    },
    {
      "anonymous": false,
      "inputs": [
        {
          "indexed": true,
          "internalType": "address",
          "name": "from",
          "type": "address"
        },
        {
          "indexed": false,
          "internalType": "uint256",
          "name": "amount",
          "type": "uint256"
        }
      ],
      "name": "Slashed",
      "type": "event"
    },
    {
      "inputs": [
        {
          "internalType": "address",
          "name": "",
          "type": "address"
        }
      ],
      "name": "balance",
      "outputs": [
        {
          "internalType": "uint256",
          "name": "",
          "type": "uint256"
        }
      ],
      "stateMutability": "view",
      "type": "function"
    },
    {
      "inputs": [],
      "name": "owner",
      "outputs": [
        {
          "internalType": "address",
          "name": "",
          "type": "address"
        }
      ],
      "stateMutability": "view",
      "type": "function"
    },
    {
      "inputs": [
        {
          "internalType": "address",
          "name": "to",
          "type": "address"
        },
        {
          "internalType": "uint256",
          "name": "amount",
          "type": "uint256"
        }
      ],
      "name": "reward",
      "outputs": [],
      "stateMutability": "nonpayable",
      "type": "function"
    },
    {
      "inputs": [
        {
          "internalType": "address",
          "name": "from",
          "type": "address"
        },
        {
          "internalType": "uint256",
          "name": "amount",
          "type": "uint256"
        }
      ],
      "name": "slash",
      "outputs": [],
      "stateMutability": "nonpayable",
      "type": "function"
    }
  ],
  "bytecode": "0x6080604052348015600f57600080fd5b50336000806101000a81548173ffffffffffffffffffffffffffffffffffffffff021916908373ffffffffffffffffffffffffffffffffffffffff1602179055506106b48061005f6000396000f3fe608060405234801561001057600080fd5b506004361061004c5760003560e01c806302fb4d851461005157806321670f221461006d5780638da5cb5b14610089578063e3d670d7146100a7575b600080fd5b61006b600480360381019061006691906104a9565b6100d7565b005b610087600480360381019061008291906104a9565b61029e565b005b6100916103d4565b60405161009e91906104f8565b60405180910390f35b6100c160048036038101906100bc9190610513565b6103f8565b6040516100ce919061054f565b60405180910390f35b60008054906101000a900473ffffffffffffffffffffffffffffffffffffffff1673ffffffffffffffffffffffffffffffffffffffff163373ffffffffffffffffffffffffffffffffffffffff1614610165576040517f08c379a000000000000000000000000000000000000000000000000000000000815260040161015c906105c7565b60405180910390fd5b80600160008473ffffffffffffffffffffffffffffffffffffffff1673ffffffffffffffffffffffffffffffffffffffff16815260200190815260200160002054106102065780600160008473ffffffffffffffffffffffffffffffffffffffff1673ffffffffffffffffffffffffffffffffffffffff16815260200190815260200160002060008282546101fa9190610616565b9250508190555061024c565b6000600160008473ffffffffffffffffffffffffffffffffffffffff1673ffffffffffffffffffffffffffffffffffffffff168152602001908152602001600020819055505b8173ffffffffffffffffffffffffffffffffffffffff167f4ed05e9673c26d2ed44f7ef6a7f2942df0ee3b5e1e17db4b99f9dcd261a339cd82604051610292919061054f565b60405180910390a25050565b60008054906101000a900473ffffffffffffffffffffffffffffffffffffffff1673ffffffffffffffffffffffffffffffffffffffff163373ffffffffffffffffffffffffffffffffffffffff161461032c576040517f08c379a0000000000000000000000000000000000000000000000000000000008152600401610323906105c7565b60405180910390fd5b80600160008473ffffffffffffffffffffffffffffffffffffffff1673ffffffffffffffffffffffffffffffffffffffff168152602001908152602001600020600082825461037b919061064a565b925050819055508173ffffffffffffffffffffffffffffffffffffffff167fb3b7a071186534c03b40695710096f289fd4ed6c1a374aff0bb648955e4fe563826040516103c8919061054f565b60405180910390a25050565b60008054906101000a900473ffffffffffffffffffffffffffffffffffffffff1681565b60016020528060005260406000206000915090505481565b600080fd5b600073ffffffffffffffffffffffffffffffffffffffff82169050919050565b600061044082610415565b9050919050565b61045081610435565b811461045b57600080fd5b50565b60008135905061046d81610447565b92915050565b6000819050919050565b61048681610473565b811461049157600080fd5b50565b6000813590506104a38161047d565b92915050565b600080604083850312156104c0576104bf610410565b5b60006104ce8582860161045e565b92505060206104df85828601610494565b9150509250929050565b6104f281610435565b82525050565b600060208201905061050d60008301846104e9565b92915050565b60006020828403121561052957610528610410565b5b60006105378482850161045e565b91505092915050565b61054981610473565b82525050565b60006020820190506105646000830184610540565b92915050565b600082825260208201905092915050565b7f6e6f74206f776e65720000000000000000000000000000000000000000000000600082015250565b60006105b160098361056a565b91506105bc8261057b565b602082019050919050565b600060208201905081810360008301526105e0816105a4565b9050919050565b7f4e487b7100000000000000000000000000000000000000000000000000000000600052601160045260246000fd5b600061062182610473565b915061062c83610473565b9250828203905081811115610644576106436105e7565b5b92915050565b600061065582610473565b915061066083610473565b9250828201905080821115610678576106776105e7565b5b9291505056fea2646970667358221220fe5db3f1a565842c6291ad7be3c9c8742d83c3503b364e0ff57b1f8ffab65eaa64736f6c634300081c0033",
  "linkReferences": {},
  "deployedLinkReferences": {}
}