{
  "_format": "hh-sol-artifact-1",
  "contractName": "PolicyStore",
  "sourceName": "contracts/PolicyStore.sol",
  "abi": [
    {
      "anonymous": false,
      "inputs": [
        {
          "indexed": true,
          "internalType": "bytes32",
          "name": "key",
          "type": "bytes32"
        },
        {
          "indexed": false,
          "internalType": "uint256",
          "name": "oldValue",
          "type": "uint256"
        },
        {
          "indexed": false,
          "internalType": "uint256",
          "name": "newValue",
          "type": "uint256"
        }
      ],
      "name": "PolicyChanged",
      "type": "event"
    },
    {
      "inputs": [
        {
          "internalType": "bytes32",
          "name": "key",
          "type": "bytes32"
        }
      ],
      "name": "getPolicy",
      "outputs": [
        {
          "internalType": "uint256",
          "name": "",
          "type": "uint256"
        }
      ],
      "stateMutability": "view",
      "type": "function"
    },
    {
      "inputs": [
        {
          "internalType": "bytes32",
          "name": "",
          "type": "bytes32"
        }
      ],
      "name": "policy",
      "outputs": [
        {
          "internalType": "uint256",
          "name": "",
          "type": "uint256"
        }
      ],
      "stateMutability": "view",
      "type": "function"
    },
    {
      "inputs": [
        {
          "internalType": "bytes32",
          "name": "key",
          "type": "bytes32"
        },
        {
          "internalType": "uint256",
          "name": "value",
          "type": "uint256"
        }
      ],
      "name": "setPolicy",
      "outputs": [],
      "stateMutability": "nonpayable",
      "type": "function"
    }
  ],
  "bytecode": "0x6080604052348015600f57600080fd5b506102ca8061001f6000396000f3fe608060405234801561001057600080fd5b50600436106100415760003560e01c8063115f746c14610046578063a3f685f914610076578063fac45f6f146100a6575b600080fd5b610060600480360381019061005b919061019e565b6100c2565b60405161006d91906101e4565b60405180910390f35b610090600480360381019061008b919061019e565b6100da565b60405161009d91906101e4565b60405180910390f35b6100c060048036038101906100bb919061022b565b6100f6565b005b60006020528060005260406000206000915090505481565b6000806000838152602001908152602001600020549050919050565b60008060008481526020019081526020016000205490508160008085815260200190815260200160002081905550827f6420b4a3383ff43c2ca0098b922a88845c64421472147a8a2e1ca776a6124f6b828460405161015692919061026b565b60405180910390a2505050565b600080fd5b6000819050919050565b61017b81610168565b811461018657600080fd5b50565b60008135905061019881610172565b92915050565b6000602082840312156101b4576101b3610163565b5b60006101c284828501610189565b91505092915050565b6000819050919050565b6101de816101cb565b82525050565b60006020820190506101f960008301846101d5565b92915050565b610208816101cb565b811461021357600080fd5b50565b600081359050610225816101ff565b92915050565b6000806040838503121561024257610241610163565b5b600061025085828601610189565b925050602061026185828601610216565b9150509250929050565b600060408201905061028060008301856101d5565b61028d60208301846101d5565b939250505056fea26469706673582212206e0cb73303c72fcc5b0aec1a5a87b2bdb4bbcdc697095d463dc74e07fa1f3d3a64736f6c634300081c0033",
  "linkReferences": {},
  "deployedLinkReferences": {}
}