{
  "_format": "hh-sol-artifact-1",
  "contractName": "AgriDAO",
  "sourceName": "contracts/AgriDAO.sol",
  "abi": [
    {
      "anonymous": false,
      "inputs": [
        {
          "indexed": false,
          "internalType": "uint256",
          "name": "id",
          "type": "uint256"
        }
      ],
      "name": "Executed",
      "type": "event"
    },
    {
      "anonymous": false,
      "inputs": [
        {
          "indexed": false,
          "internalType": "uint256",
          "name": "id",
          "type": "uint256"
        },
        {
          "indexed": false,
          "internalType": "address",
          "name": "proposer",
          "type": "address"
        },
        {
          "indexed": false,
          "internalType": "string",
          "name": "text",
          "type": "string"
        }
      ],
      "name": "Proposed",
      "type": "event"
    },
    {
      "anonymous": false,
      "inputs": [
        {
          "indexed": false,
          "internalType": "uint256",
          "name": "id",
          "type": "uint256"
        },
        {
          "indexed": false,
          "internalType": "address",
          "name": "voter",
          "type": "address"
        },
        {
          "indexed": false,
          "internalType": "bool",
          "name": "support",
          "type": "bool"
        }
      ],
      "name": "Voted",
      "type": "event"
    },
    {
      "inputs": [
        {
          "internalType": "uint256",
          "name": "id",
          "type": "uint256"
        }
      ],
      "name": "execute",
      "outputs": [],
      "stateMutability": "nonpayable",
      "type": "function"
    },
    {
      "inputs": [],
      "name": "nextId",
      "outputs": [
        {
          "internalType": "uint256",
          "name": "",
          "type": "uint256"
        }
      ],
      "stateMutability": "view",
      "type": "function"
    },
    {
      "inputs": [
        {
          "internalType": "uint256",
          "name": "",
          "type": "uint256"
        }
      ],
      "name": "proposals",
      "outputs": [
        {
          "internalType": "uint256",
          "name": "id",
          "type": "uint256"
        },
        {
          "internalType": "address",
          "name": "proposer",
          "type": "address"
        },
        {
          "internalType": "string",
          "name": "text",
          "type": "string"
        },
        {
          "internalType": "bool",
          "name": "executed",
          "type": "bool"
        },
        {
          "internalType": "uint256",
          "name": "yes",
          "type": "uint256"
        },
        {
          "internalType": "uint256",
          "name": "no",
          "type": "uint256"
        }
      ],
      "stateMutability": "view",
      "type": "function"
    },
    {
      "inputs": [
        {
          "internalType": "string",
          "name": "text",
          "type": "string"
        }
      ],
      "name": "propose",
      "outputs": [
        {
          "internalType": "uint256",
          "name": "",
          "type": "uint256"
        }
      ],
      "stateMutability": "nonpayable",
      "type": "function"
    },
    {
      "inputs": [
        {
          "internalType": "uint256",
          "name": "id",
          "type": "uint256"
        },
        {
          "internalType": "bool",
          "name": "support",
          "type": "bool"
        }
      ],
      "name": "vote",
      "outputs": [],
      "stateMutability": "nonpayable",
      "type": "function"
    },
    {
      "inputs": [
        {
          "internalType": "uint256",
          "name": "",
          "type": "uint256"
        },
        {
          "internalType": "address",
          "name": "",
          "type": "address"
        }
      ],
      "name": "voted",
      "outputs": [
        {
          "internalType": "bool",
          "name": "",
          "type": "bool"
        }
      ],
      "stateMutability": "view",
      "type": "function"
    }
  ],
  "bytecode": "0x6080604052348015600f57600080fd5b50610e908061001f6000396000f3fe608060405234801561001057600080fd5b50600436106100625760003560e01c8063013cf08b146100675780635277b4ae1461009c57806361b8ce8c146100cc578063aa98df39146100ea578063c9d27afe1461011a578063fe0d94c114610136575b600080fd5b610081600480360381019061007c9190610667565b610152565b6040516100939695949392919061078f565b60405180910390f35b6100b660048036038101906100b19190610823565b610243565b6040516100c39190610863565b60405180910390f35b6100d4610272565b6040516100e1919061087e565b60405180910390f35b61010460048036038101906100ff91906108fe565b610278565b604051610111919061087e565b60405180910390f35b610134600480360381019061012f9190610977565b610415565b005b610150600480360381019061014b9190610667565b6105bf565b005b60016020528060005260406000206000915090508060000154908060010160009054906101000a900473ffffffffffffffffffffffffffffffffffffffff16908060020180546101a1906109e6565b80601f01602080910402602001604051908101604052809291908181526020018280546101cd906109e6565b801561021a5780601f106101ef5761010080835404028352916020019161021a565b820191906000526020600020905b8154815290600101906020018083116101fd57829003601f168201915b5050505050908060030160009054906101000a900460ff16908060040154908060050154905086565b60026020528160005260406000206020528060005260406000206000915091509054906101000a900460ff1681565b60005481565b600080600080815461028990610a46565b91905081905590506040518060c001604052808281526020013373ffffffffffffffffffffffffffffffffffffffff16815260200185858080601f016020809104026020016040519081016040528093929190818152602001838380828437600081840152601f19601f820116905080830192505050505050508152602001600015158152602001600081526020016000815250600160008381526020019081526020016000206000820151816000015560208201518160010160006101000a81548173ffffffffffffffffffffffffffffffffffffffff021916908373ffffffffffffffffffffffffffffffffffffffff16021790555060408201518160020190816103969190610c69565b5060608201518160030160006101000a81548160ff0219169083151502179055506080820151816004015560a082015181600501559050507f53d20bea7f03a447e60000b0845f7514e5d52344d489960a4aaabb244e95a18f813386866040516104039493929190610d77565b60405180910390a18091505092915050565b6002600083815260200190815260200160002060003373ffffffffffffffffffffffffffffffffffffffff1673ffffffffffffffffffffffffffffffffffffffff16815260200190815260200160002060009054906101000a900460ff16156104b3576040517f08c379a00000000000000000000000000000000000000000000000000000000081526004016104aa90610e03565b60405180910390fd5b60016002600084815260200190815260200160002060003373ffffffffffffffffffffffffffffffffffffffff1673ffffffffffffffffffffffffffffffffffffffff16815260200190815260200160002060006101000a81548160ff02191690831515021790555080156105535760016000838152602001908152602001600020600401600081548092919061054990610a46565b9190505550610580565b60016000838152602001908152602001600020600501600081548092919061057a90610a46565b91905055505b7ff2913dbe661ee2acc4a046d8fbcdc792373bda34c41c6086484b5345e5785e5f8233836040516105b393929190610e23565b60405180910390a15050565b600180600083815260200190815260200160002060030160006101000a81548160ff0219169083151502179055507fbcf6a68a2f901be4a23a41b53acd7697893a7e34def4e28acba584da75283b678160405161061c919061087e565b60405180910390a150565b600080fd5b600080fd5b6000819050919050565b61064481610631565b811461064f57600080fd5b50565b6000813590506106618161063b565b92915050565b60006020828403121561067d5761067c610627565b5b600061068b84828501610652565b91505092915050565b61069d81610631565b82525050565b600073ffffffffffffffffffffffffffffffffffffffff82169050919050565b60006106ce826106a3565b9050919050565b6106de816106c3565b82525050565b600081519050919050565b600082825260208201905092915050565b60005b8381101561071e578082015181840152602081019050610703565b60008484015250505050565b6000601f19601f8301169050919050565b6000610746826106e4565b61075081856106ef565b9350610760818560208601610700565b6107698161072a565b840191505092915050565b60008115159050919050565b61078981610774565b82525050565b600060c0820190506107a46000830189610694565b6107b160208301886106d5565b81810360408301526107c3818761073b565b90506107d26060830186610780565b6107df6080830185610694565b6107ec60a0830184610694565b979650505050505050565b610800816106c3565b811461080b57600080fd5b50565b60008135905061081d816107f7565b92915050565b6000806040838503121561083a57610839610627565b5b600061084885828601610652565b92505060206108598582860161080e565b9150509250929050565b60006020820190506108786000830184610780565b92915050565b60006020820190506108936000830184610694565b92915050565b600080fd5b600080fd5b600080fd5b60008083601f8401126108be576108bd610899565b5b8235905067ffffffffffffffff8111156108db576108da61089e565b5b6020830191508360018202830111156108f7576108f66108a3565b5b9250929050565b6000806020838503121561091557610914610627565b5b600083013567ffffffffffffffff8111156109335761093261062c565b5b61093f858286016108a8565b92509250509250929050565b61095481610774565b811461095f57600080fd5b50565b6000813590506109718161094b565b92915050565b6000806040838503121561098e5761098d610627565b5b600061099c85828601610652565b92505060206109ad85828601610962565b9150509250929050565b7f4e487b7100000000000000000000000000000000000000000000000000000000600052602260045260246000fd5b600060028204905060018216806109fe57607f821691505b602082108103610a1157610a106109b7565b5b50919050565b7f4e487b7100000000000000000000000000000000000000000000000000000000600052601160045260246000fd5b6000610a5182610631565b91507fffffffffffffffffffffffffffffffffffffffffffffffffffffffffffffffff8203610a8357610a82610a17565b5b600182019050919050565b7f4e487b7100000000000000000000000000000000000000000000000000000000600052604160045260246000fd5b60008190508160005260206000209050919050565b60006020601f8301049050919050565b600082821b905092915050565b600060088302610b1f7fffffffffffffffffffffffffffffffffffffffffffffffffffffffffffffffff82610ae2565b610b298683610ae2565b95508019841693508086168417925050509392505050565b6000819050919050565b6000610b66610b61610b5c84610631565b610b41565b610631565b9050919050565b6000819050919050565b610b8083610b4b565b610b94610b8c82610b6d565b848454610aef565b825550505050565b600090565b610ba9610b9c565b610bb4818484610b77565b505050565b5b81811015610bd857610bcd600082610ba1565b600181019050610bba565b5050565b601f821115610c1d57610bee81610abd565b610bf784610ad2565b81016020851015610c06578190505b610c1a610c1285610ad2565b830182610bb9565b50505b505050565b600082821c905092915050565b6000610c4060001984600802610c22565b1980831691505092915050565b6000610c598383610c2f565b9150826002028217905092915050565b610c72826106e4565b67ffffffffffffffff811115610c8b57610c8a610a8e565b5b610c9582546109e6565b610ca0828285610bdc565b600060209050601f831160018114610cd35760008415610cc1578287015190505b610ccb8582610c4d565b865550610d33565b601f198416610ce186610abd565b60005b82811015610d0957848901518255600182019150602085019450602081019050610ce4565b86831015610d265784890151610d22601f891682610c2f565b8355505b6001600288020188555050505b505050505050565b82818337600083830152505050565b6000610d5683856106ef565b9350610d63838584610d3b565b610d6c8361072a565b840190509392505050565b6000606082019050610d8c6000830187610694565b610d9960208301866106d5565b8181036040830152610dac818486610d4a565b905095945050505050565b7f616c726561647920766f74656400000000000000000000000000000000000000600082015250565b6000610ded600d836106ef565b9150610df882610db7565b602082019050919050565b60006020820190508181036000830152610e1c81610de0565b9050919050565b6000606082019050610e386000830186610694565b610e4560208301856106d5565b610e526040830184610780565b94935050505056fea2646970667358221220217638e48824817e308685cfba44bd8657e480405c059546fbb290b1ceb2318c64736f6c634300081c0033",
  "linkReferences": {},
  "deployedLinkReferences": {}
}