{
  "_format": "hh-sol-artifact-1",
  "contractName": "DecisionLogger",
  "sourceName": "contracts/DecisionLogger.sol",
  "abi": [
    {
      "anonymous": false,
      "inputs": [
        {
          "indexed": true,
          "internalType": "bytes32",
          "name": "id",
          "type": "bytes32"
        },
        {
          "indexed": false,
          "internalType": "uint256",
          "name": "ts",
          "type": "uint256"
        },
        {
          "indexed": false,
          "internalType": "string",
          "name": "agent",
          "type": "string"
        },
        {
          "indexed": false,
          "internalType": "string",
          "name": "role",
          "type": "string"
        },
        {
          "indexed": false,
          "internalType": "string",
          "name": "action",
          "type": "string"
        },
        {
          "indexed": false,
          "internalType": "uint256",
          "name": "slca_milli",
          "type": "uint256"
        },
        {
          "indexed": false,
          "internalType": "uint256",
          "name": "carbon_milli",
          "type": "uint256"
        },
        {
          "indexed": false,
          "internalType": "string",
          "name": "note",
          "type": "string"
        }
      ],
      "name": "DecisionLogged",
      "type": "event"
    },
    {
      "inputs": [
        {
          "internalType": "uint256",
          "name": "ts",
          "type": "uint256"
        },
        {
          "internalType": "string",
          "name": "agent",
          "type": "string"
        },
        {
          "internalType": "string",
          "name": "role",
          "type": "string"
        },
        {
          "internalType": "string",
          "name": "action",
          "type": "string"
        },
        {
          "internalType": "uint256",
          "name": "slca_milli",
          "type": "uint256"
        },
        {
          "internalType": "uint256",
          "name": "carbon_milli",
          "type": "uint256"
        },
        {
          "internalType": "string",
          "name": "note",
          "type": "string"
        }
      ],
      "name": "logDecision",
      "outputs": [
        {
          "internalType": "bytes32",
          "name": "id",
          "type": "bytes32"
        }
      ],
      "stateMutability": "nonpayable",
      "type": "function"
    },
    {
      "inputs": [
        {
          "internalType": "bytes32",
          "name": "",
          "type": "bytes32"
        }
      ],
      "name": "memos",
      "outputs": [
        {
          "internalType": "uint256",
          "name": "ts",
          "type": "uint256"
        },
        {
          "internalType": "string",
          "name": "agent",
          "type": "string"
        },
        {
          "internalType": "string",
          "name": "role",
          "type": "string"
        },
        {
          "internalType": "string",
          "name": "action",
          "type": "string"
        },
        {
          "internalType": "uint256",
          "name": "slca_milli",
          "type": "uint256"
        },
        {
          "internalType": "uint256",
          "name": "carbon_milli",
          "type": "uint256"
        },
        {
          "internalType": "string",
          "name": "note",
          "type": "string"
        }
      ],
      "stateMutability": "view",
      "type": "function"
    }
  ],
  "bytecode": "0x6080604052348015600f57600080fd5b50610d8b8061001f6000396000f3fe608060405234801561001057600080fd5b50600436106100365760003560e01c806374a449a11461003b57806393c56f2a1461006b575b600080fd5b61005560048036038101906100509190610606565b6100a1565b6040516100629190610743565b60405180910390f35b6100856004803603810190610080919061078a565b6102ff565b6040516100989796959493929190610856565b60405180910390f35b60008b8b8b8989336040516020016100be9695949392919061095e565b6040516020818303038152906040528051906020012090506040518060e001604052808d81526020018c8c8080601f016020809104026020016040519081016040528093929190818152602001838380828437600081840152601f19601f8201169050808301925050505050505081526020018a8a8080601f016020809104026020016040519081016040528093929190818152602001838380828437600081840152601f19601f82011690508083019250505050505050815260200188888080601f016020809104026020016040519081016040528093929190818152602001838380828437600081840152601f19601f82011690508083019250505050505050815260200186815260200185815260200184848080601f016020809104026020016040519081016040528093929190818152602001838380828437600081840152601f19601f8201169050808301925050505050505081525060008083815260200190815260200160002060008201518160000155602082015181600101908161024a9190610bf0565b5060408201518160020190816102609190610bf0565b5060608201518160030190816102769190610bf0565b506080820151816004015560a0820151816005015560c08201518160060190816102a09190610bf0565b50905050807f7af378071a0805301f6712c6e435478cc1e7d3c8cef815e78849fb7c548a7ed08d8d8d8d8d8d8d8d8d8d8d6040516102e89b9a99989796959493929190610cc2565b60405180910390a29b9a5050505050505050505050565b600060205280600052604060002060009150905080600001549080600101805461032890610a13565b80601f016020809104026020016040519081016040528092919081815260200182805461035490610a13565b80156103a15780601f10610376576101008083540402835291602001916103a1565b820191906000526020600020905b81548152906001019060200180831161038457829003601f168201915b5050505050908060020180546103b690610a13565b80601f01602080910402602001604051908101604052809291908181526020018280546103e290610a13565b801561042f5780601f106104045761010080835404028352916020019161042f565b820191906000526020600020905b81548152906001019060200180831161041257829003601f168201915b50505050509080600301805461044490610a13565b80601f016020809104026020016040519081016040528092919081815260200182805461047090610a13565b80156104bd5780601f10610492576101008083540402835291602001916104bd565b820191906000526020600020905b8154815290600101906020018083116104a057829003601f168201915b5050505050908060040154908060050154908060060180546104de90610a13565b80601f016020809104026020016040519081016040528092919081815260200182805461050a90610a13565b80156105575780601f1061052c57610100808354040283529160200191610557565b820191906000526020600020905b81548152906001019060200180831161053a57829003601f168201915b5050505050905087565b600080fd5b600080fd5b6000819050919050565b61057e8161056b565b811461058957600080fd5b50565b60008135905061059b81610575565b92915050565b600080fd5b600080fd5b600080fd5b60008083601f8401126105c6576105c56105a1565b5b8235905067ffffffffffffffff8111156105e3576105e26105a6565b5b6020830191508360018202830111156105ff576105fe6105ab565b5b9250929050565b600080600080600080600080600080600060e08c8e03121561062b5761062a610561565b5b60006106398e828f0161058c565b9b505060208c013567ffffffffffffffff81111561065a57610659610566565b5b6106668e828f016105b0565b9a509a505060408c013567ffffffffffffffff81111561068957610688610566565b5b6106958e828f016105b0565b985098505060608c013567ffffffffffffffff8111156106b8576106b7610566565b5b6106c48e828f016105b0565b965096505060806106d78e828f0161058c565b94505060a06106e88e828f0161058c565b93505060c08c013567ffffffffffffffff81111561070957610708610566565b5b6107158e828f016105b0565b92509250509295989b509295989b9093969950565b6000819050919050565b61073d8161072a565b82525050565b60006020820190506107586000830184610734565b92915050565b6107678161072a565b811461077257600080fd5b50565b6000813590506107848161075e565b92915050565b6000602082840312156107a05761079f610561565b5b60006107ae84828501610775565b91505092915050565b6107c08161056b565b82525050565b600081519050919050565b600082825260208201905092915050565b60005b838110156108005780820151818401526020810190506107e5565b60008484015250505050565b6000601f19601f8301169050919050565b6000610828826107c6565b61083281856107d1565b93506108428185602086016107e2565b61084b8161080c565b840191505092915050565b600060e08201905061086b600083018a6107b7565b818103602083015261087d818961081d565b90508181036040830152610891818861081d565b905081810360608301526108a5818761081d565b90506108b460808301866107b7565b6108c160a08301856107b7565b81810360c08301526108d3818461081d565b905098975050505050505050565b82818337600083830152505050565b60006108fc83856107d1565b93506109098385846108e1565b6109128361080c565b840190509392505050565b600073ffffffffffffffffffffffffffffffffffffffff82169050919050565b60006109488261091d565b9050919050565b6109588161093d565b82525050565b600060808201905061097360008301896107b7565b81810360208301526109868187896108f0565b9050818103604083015261099b8185876108f0565b90506109aa606083018461094f565b979650505050505050565b7f4e487b7100000000000000000000000000000000000000000000000000000000600052604160045260246000fd5b7f4e487b7100000000000000000000000000000000000000000000000000000000600052602260045260246000fd5b60006002820490506001821680610a2b57607f821691505b602082108103610a3e57610a3d6109e4565b5b50919050565b60008190508160005260206000209050919050565b60006020601f8301049050919050565b600082821b905092915050565b600060088302610aa67fffffffffffffffffffffffffffffffffffffffffffffffffffffffffffffffff82610a69565b610ab08683610a69565b95508019841693508086168417925050509392505050565b6000819050919050565b6000610aed610ae8610ae38461056b565b610ac8565b61056b565b9050919050565b6000819050919050565b610b0783610ad2565b610b1b610b1382610af4565b848454610a76565b825550505050565b600090565b610b30610b23565b610b3b818484610afe565b505050565b5b81811015610b5f57610b54600082610b28565b600181019050610b41565b5050565b601f821115610ba457610b7581610a44565b610b7e84610a59565b81016020851015610b8d578190505b610ba1610b9985610a59565b830182610b40565b50505b505050565b600082821c905092915050565b6000610bc760001984600802610ba9565b1980831691505092915050565b6000610be08383610bb6565b9150826002028217905092915050565b610bf9826107c6565b67ffffffffffffffff811115610c1257610c116109b5565b5b610c1c8254610a13565b610c27828285610b63565b600060209050601f831160018114610c5a5760008415610c48578287015190505b610c528582610bd4565b865550610cba565b601f198416610c6886610a44565b60005b82811015610c9057848901518255600182019150602085019450602081019050610c6b565b86831015610cad5784890151610ca9601f891682610bb6565b8355505b6001600288020188555050505b505050505050565b600060e082019050610cd7600083018e6107b7565b8181036020830152610cea818c8e6108f0565b90508181036040830152610cff818a8c6108f0565b90508181036060830152610d1481888a6108f0565b9050610d2360808301876107b7565b610d3060a08301866107b7565b81810360c0830152610d438184866108f0565b90509c9b50505050505050505050505056fea2646970667358221220ae4f29e02afdd929764a8e12a3d33a401d7fcefd836fca513b71f2a04b5e708d64736f6c634300081c0033",
  "linkReferences": {},
  "deployedLinkReferences": {}
}