{
  "_format": "hh-sol-artifact-1",
  "contractName": "SLCARewards",
  "sourceName": "contracts/SLCARewards.sol",
  "abi": [
    {
      "anonymous": false,
      "inputs": [
        {
          "indexed": true,
          "internalType": "address",
          "name": "to",
          "type": "address"
        },
        {
          "indexed": false,
          "internalType": "uint256",
          "name": "amount",
          "type": "uint256"
        }
      ],
      "name": "Rewarded",
      "type": "event"
    },
    {
      "anonymous": false,
      "inputs": [
        {
          "indexed": true,
          "internalType": "address",
          "name": "from",
          "type": "address"
        },
        {
          "indexed": false,
          "internalType": "uint256",
          "name": "amount",
          "type": "uint256"
        }
      ],
      "name": "Slashed",
      "type": "event"
    },
    {
      "inputs": [
        {
          "internalType": "address",
          "name": "",
          "type": "address"
        }
      ],
      "name": "balance",
      "outputs": [
        {
          "internalType": "uint256",
          "name": "",
          "type": "uint256"
        }
      ],
      "stateMutability": "view",
      "type": "function"
    },
    {
      "inputs": [
        {
          "internalType": "address",
          "name": "to",
          "type": "address"
        },
        {
          "internalType": "uint256",
          "name": "amount",
          "type": "uint256"
        }
      ],
      "name": "reward",
      "outputs": [],
      "stateMutability": "nonpayable",
      "type": "function"
    },
    {
      "inputs": [
        {
          "internalType": "address",
          "name": "from",
          "type": "address"
        },
        {
          "internalType": "uint256",
          "name": "amount",
          "type": "uint256"
        }
      ],
      "name": "slash",
      "outputs": [],
      "stateMutability": "nonpayable",
      "type": "function"
    }
  ],
  "bytecode": "0x6080604052348015600f57600080fd5b506104a08061001f6000396000f3fe608060405234801561001057600080fd5b50600436106100415760003560e01c806302fb4d851461004657806321670f2214610062578063e3d670d71461007e575b600080fd5b610060600480360381019061005b919061033c565b6100ae565b005b61007c6004803603810190610077919061033c565b6101e4565b005b6100986004803603810190610093919061037c565b61028b565b6040516100a591906103b8565b60405180910390f35b806000808473ffffffffffffffffffffffffffffffffffffffff1673ffffffffffffffffffffffffffffffffffffffff168152602001908152602001600020541061014d57806000808473ffffffffffffffffffffffffffffffffffffffff1673ffffffffffffffffffffffffffffffffffffffff16815260200190815260200160002060008282546101419190610402565b92505081905550610192565b60008060008473ffffffffffffffffffffffffffffffffffffffff1673ffffffffffffffffffffffffffffffffffffffff168152602001908152602001600020819055505b8173ffffffffffffffffffffffffffffffffffffffff167f4ed05e9673c26d2ed44f7ef6a7f2942df0ee3b5e1e17db4b99f9dcd261a339cd826040516101d891906103b8565b60405180910390a25050565b806000808473ffffffffffffffffffffffffffffffffffffffff1673ffffffffffffffffffffffffffffffffffffffff16815260200190815260200160002060008282546102329190610436565b925050819055508173ffffffffffffffffffffffffffffffffffffffff167fb3b7a071186534c03b40695710096f289fd4ed6c1a374aff0bb648955e4fe5638260405161027f91906103b8565b60405180910390a25050565b60006020528060005260406000206000915090505481565b600080fd5b600073ffffffffffffffffffffffffffffffffffffffff82169050919050565b60006102d3826102a8565b9050919050565b6102e3816102c8565b81146102ee57600080fd5b50565b600081359050610300816102da565b92915050565b6000819050919050565b61031981610306565b811461032457600080fd5b50565b60008135905061033681610310565b92915050565b60008060408385031215610353576103526102a3565b5b6000610361858286016102f1565b925050602061037285828601610327565b9150509250929050565b600060208284031215610392576103916102a3565b5b60006103a0848285016102f1565b91505092915050565b6103b281610306565b82525050565b60006020820190506103cd60008301846103a9565b92915050565b7f4e487b7100000000000000000000000000000000000000000000000000000000600052601160045260246000fd5b600061040d82610306565b915061041883610306565b92508282039050818111156104305761042f6103d3565b5b92915050565b600061044182610306565b915061044c83610306565b9250828201905080821115610464576104636103d3565b5b9291505056fea2646970667358221220e5db9ebb578570ac77077fd25e827e46153504d752f5655d53929275cdd93f7164736f6c634300081c0033",
  "linkReferences": {},
  "deployedLinkReferences": {}
}