{
  "_format": "hh-sol-artifact-1",
  "contractName": "AgentRegistry",
  "sourceName": "contracts/AgentRegistry.sol",
  "abi": [
    {
      "anonymous": false,
      "inputs": [
        {
          "indexed": true,
          "internalType": "address",
          "name": "agent",
          "type": "address"
        },
        {
          "indexed": false,
          "internalType": "bytes32",
          "name": "id",
          "type": "bytes32"
        },
        {
          "indexed": false,
          "internalType": "string",
          "name": "role",
          "type": "string"
        },
        {
          "indexed": false,
          "internalType": "string",
          "name": "meta",
          "type": "string"
        }
      ],
      "name": "Registered",
      "type": "event"
    },
    {
      "anonymous": false,
      "inputs": [
        {
          "indexed": true,
          "internalType": "address",
          "name": "agent",
          "type": "address"
        },
        {
          "indexed": false,
          "internalType": "bool",
          "name": "active",
          "type": "bool"
        }
      ],
      "name": "Status",
      "type": "event"
    },
    {
      "inputs": [
        {
          "internalType": "address",
          "name": "",
          "type": "address"
        }
      ],
      "name": "agents",
      "outputs": [
        {
          "internalType": "bytes32",
          "name": "id",
          "type": "bytes32"
        },
        {
          "internalType": "string",
          "name": "role",
          "type": "string"
        },
        {
          "internalType": "string",
          "name": "meta",
          "type": "string"
        },
        {
          "internalType": "bool",
          "name": "active",
          "type": "bool"
        }
      ],
      "stateMutability": "view",
      "type": "function"
    },
    {
      "inputs": [
        {
          "internalType": "bytes32",
          "name": "id",
          "type": "bytes32"
        },
        {
          "internalType": "string",
          "name": "role",
          "type": "string"
        },
        {
          "internalType": "string",
          "name": "meta",
          "type": "string"
        }
      ],
      "name": "register",
      "outputs": [],
      "stateMutability": "nonpayable",
      "type": "function"
    },
    {
      "inputs": [
        {
          "internalType": "bool",
          "name": "on",
          "type": "bool"
        }
      ],
      "name": "setActive",
      "outputs": [],
      "stateMutability": "nonpayable",
      "type": "function"
    }
  ],
  "bytecode": "0x6080604052348015600f57600080fd5b50610c528061001f6000396000f3fe608060405234801561001057600080fd5b50600436106100415760003560e01c806358fd6aec14610046578063acec338a14610062578063fd66091e1461007e575b600080fd5b610060600480360381019061005b9190610573565b6100b1565b005b61007c60048036038101906100779190610640565b610251565b005b610098600480360381019061009391906106cb565b610381565b6040516100a894939291906107a6565b60405180910390f35b604051806080016040528086815260200185858080601f016020809104026020016040519081016040528093929190818152602001838380828437600081840152601f19601f82011690508083019250505050505050815260200183838080601f016020809104026020016040519081016040528093929190818152602001838380828437600081840152601f19601f820116905080830192505050505050508152602001600115158152506000803373ffffffffffffffffffffffffffffffffffffffff1673ffffffffffffffffffffffffffffffffffffffff1681526020019081526020016000206000820151816000015560208201518160010190816101ba9190610a3e565b5060408201518160020190816101d09190610a3e565b5060608201518160030160006101000a81548160ff0219169083151502179055509050503373ffffffffffffffffffffffffffffffffffffffff167f26ba914159e673e5935b59577cbb5150e062a259fd669dbe1860064484eaa41b8686868686604051610242959493929190610b4c565b60405180910390a25050505050565b6000801b6000803373ffffffffffffffffffffffffffffffffffffffff1673ffffffffffffffffffffffffffffffffffffffff16815260200190815260200160002060000154036102d7576040517f08c379a00000000000000000000000000000000000000000000000000000000081526004016102ce90610be1565b60405180910390fd5b806000803373ffffffffffffffffffffffffffffffffffffffff1673ffffffffffffffffffffffffffffffffffffffff16815260200190815260200160002060030160006101000a81548160ff0219169083151502179055503373ffffffffffffffffffffffffffffffffffffffff167f558839e12adce85a404b8c93c3761d6ee519f1cd01761fe1123cdbd257d2eaae826040516103769190610c01565b60405180910390a250565b60006020528060005260406000206000915090508060000154908060010180546103aa90610857565b80601f01602080910402602001604051908101604052809291908181526020018280546103d690610857565b80156104235780601f106103f857610100808354040283529160200191610423565b820191906000526020600020905b81548152906001019060200180831161040657829003601f168201915b50505050509080600201805461043890610857565b80601f016020809104026020016040519081016040528092919081815260200182805461046490610857565b80156104b15780601f10610486576101008083540402835291602001916104b1565b820191906000526020600020905b81548152906001019060200180831161049457829003601f168201915b5050505050908060030160009054906101000a900460ff16905084565b600080fd5b600080fd5b6000819050919050565b6104eb816104d8565b81146104f657600080fd5b50565b600081359050610508816104e2565b92915050565b600080fd5b600080fd5b600080fd5b60008083601f8401126105335761053261050e565b5b8235905067ffffffffffffffff8111156105505761054f610513565b5b60208301915083600182028301111561056c5761056b610518565b5b9250929050565b60008060008060006060868803121561058f5761058e6104ce565b5b600061059d888289016104f9565b955050602086013567ffffffffffffffff8111156105be576105bd6104d3565b5b6105ca8882890161051d565b9450945050604086013567ffffffffffffffff8111156105ed576105ec6104d3565b5b6105f98882890161051d565b92509250509295509295909350565b60008115159050919050565b61061d81610608565b811461062857600080fd5b50565b60008135905061063a81610614565b92915050565b600060208284031215610656576106556104ce565b5b60006106648482850161062b565b91505092915050565b600073ffffffffffffffffffffffffffffffffffffffff82169050919050565b60006106988261066d565b9050919050565b6106a88161068d565b81146106b357600080fd5b50565b6000813590506106c58161069f565b92915050565b6000602082840312156106e1576106e06104ce565b5b60006106ef848285016106b6565b91505092915050565b610701816104d8565b82525050565b600081519050919050565b600082825260208201905092915050565b60005b83811015610741578082015181840152602081019050610726565b60008484015250505050565b6000601f19601f8301169050919050565b600061076982610707565b6107738185610712565b9350610783818560208601610723565b61078c8161074d565b840191505092915050565b6107a081610608565b82525050565b60006080820190506107bb60008301876106f8565b81810360208301526107cd818661075e565b905081810360408301526107e1818561075e565b90506107f06060830184610797565b95945050505050565b7f4e487b7100000000000000000000000000000000000000000000000000000000600052604160045260246000fd5b7f4e487b7100000000000000000000000000000000000000000000000000000000600052602260045260246000fd5b6000600282049050600182168061086f57607f821691505b60208210810361088257610881610828565b5b50919050565b60008190508160005260206000209050919050565b60006020601f8301049050919050565b600082821b905092915050565b6000600883026108ea7fffffffffffffffffffffffffffffffffffffffffffffffffffffffffffffffff826108ad565b6108f486836108ad565b95508019841693508086168417925050509392505050565b6000819050919050565b6000819050919050565b600061093b6109366109318461090c565b610916565b61090c565b9050919050565b6000819050919050565b61095583610920565b61096961096182610942565b8484546108ba565b825550505050565b600090565b61097e610971565b61098981848461094c565b505050565b5b818110156109ad576109a2600082610976565b60018101905061098f565b5050565b601f8211156109f2576109c381610888565b6109cc8461089d565b810160208510156109db578190505b6109ef6109e78561089d565b83018261098e565b50505b505050565b600082821c905092915050565b6000610a15600019846008026109f7565b1980831691505092915050565b6000610a2e8383610a04565b9150826002028217905092915050565b610a4782610707565b67ffffffffffffffff811115610a6057610a5f6107f9565b5b610a6a8254610857565b610a758282856109b1565b600060209050601f831160018114610aa85760008415610a96578287015190505b610aa08582610a22565b865550610b08565b601f198416610ab686610888565b60005b82811015610ade57848901518255600182019150602085019450602081019050610ab9565b86831015610afb5784890151610af7601f891682610a04565b8355505b6001600288020188555050505b505050505050565b82818337600083830152505050565b6000610b2b8385610712565b9350610b38838584610b10565b610b418361074d565b840190509392505050565b6000606082019050610b6160008301886106f8565b8181036020830152610b74818688610b1f565b90508181036040830152610b89818486610b1f565b90509695505050505050565b7f6e6f742072656769737465726564000000000000000000000000000000000000600082015250565b6000610bcb600e83610712565b9150610bd682610b95565b602082019050919050565b60006020820190508181036000830152610bfa81610bbe565b9050919050565b6000602082019050610c166000830184610797565b9291505056fea26469706673582212209ec83ad38621e58c310a8f1621f2711e7ad7a20927943c6741cd4b06b29660ed64736f6c634300081c0033",
  "linkReferences": {},
  "deployedLinkReferences": {}
}